{
  "_format": "hh3-artifact-1",
  "contractName": "LiquidityVault",
  "sourceName": "src/LiquidityVault.sol",
  "abi": [
    {
      "inputs": [
        {
          "internalType": "address",
          "name": "_gad",
          "type": "address"
        },
        {
          "internalType": "address",
          "name": "_usdt",
          "type": "address"
        },
        {
          "internalType": "address",
          "name": "_wbnb",
          "type": "address"
        },
        {
          "internalType": "address",
          "name": "_router",
          "type": "address"
        },
        {
          "internalType": "address",
          "name": "_owner",
          "type": "address"
        },
        {
          "internalType": "address",
          "name": "_lpReceiver",
          "type": "address"
        }
      ],
      "stateMutability": "nonpayable",
      "type": "constructor"
    },
    {
      "anonymous": false,
      "inputs": [
        {
          "indexed": false,
          "internalType": "uint256",
          "name": "gadIn",
          "type": "uint256"
        },
        {
          "indexed": false,
          "internalType": "uint256",
          "name": "bnbIn",
          "type": "uint256"
        },
        {
          "indexed": false,
          "internalType": "uint256",
          "name": "lpOut",
          "type": "uint256"
        }
      ],
      "name": "AddLiquidityGadBnb",
      "type": "event"
    },
    {
      "anonymous": false,
      "inputs": [
        {
          "indexed": false,
          "internalType": "uint256",
          "name": "gadIn",
          "type": "uint256"
        },
        {
          "indexed": false,
          "internalType": "uint256",
          "name": "usdtIn",
          "type": "uint256"
        },
        {
          "indexed": false,
          "internalType": "uint256",
          "name": "lpOut",
          "type": "uint256"
        }
      ],
      "name": "AddLiquidityGadUsdt",
      "type": "event"
    },
    {
      "anonymous": false,
      "inputs": [
        {
          "indexed": true,
          "internalType": "address",
          "name": "from",
          "type": "address"
        },
        {
          "indexed": false,
          "internalType": "uint256",
          "name": "amount",
          "type": "uint256"
        }
      ],
      "name": "DepositBNB",
      "type": "event"
    },
    {
      "anonymous": false,
      "inputs": [
        {
          "indexed": true,
          "internalType": "address",
          "name": "token",
          "type": "address"
        },
        {
          "indexed": true,
          "internalType": "address",
          "name": "from",
          "type": "address"
        },
        {
          "indexed": false,
          "internalType": "uint256",
          "name": "amount",
          "type": "uint256"
        }
      ],
      "name": "DepositToken",
      "type": "event"
    },
    {
      "anonymous": false,
      "inputs": [
        {
          "indexed": true,
          "internalType": "address",
          "name": "depositor",
          "type": "address"
        },
        {
          "indexed": false,
          "internalType": "bool",
          "name": "allowed",
          "type": "bool"
        }
      ],
      "name": "DepositorAllowed",
      "type": "event"
    },
    {
      "anonymous": false,
      "inputs": [
        {
          "indexed": true,
          "internalType": "address",
          "name": "oldReceiver",
          "type": "address"
        },
        {
          "indexed": true,
          "internalType": "address",
          "name": "newReceiver",
          "type": "address"
        }
      ],
      "name": "LpReceiverChanged",
      "type": "event"
    },
    {
      "anonymous": false,
      "inputs": [
        {
          "indexed": true,
          "internalType": "address",
          "name": "oldOwner",
          "type": "address"
        },
        {
          "indexed": true,
          "internalType": "address",
          "name": "newOwner",
          "type": "address"
        }
      ],
      "name": "OwnerChanged",
      "type": "event"
    },
    {
      "inputs": [],
      "name": "GAD",
      "outputs": [
        {
          "internalType": "address",
          "name": "",
          "type": "address"
        }
      ],
      "stateMutability": "view",
      "type": "function"
    },
    {
      "inputs": [],
      "name": "ROUTER",
      "outputs": [
        {
          "internalType": "contract IPancakeRouterV2",
          "name": "",
          "type": "address"
        }
      ],
      "stateMutability": "view",
      "type": "function"
    },
    {
      "inputs": [],
      "name": "USDT",
      "outputs": [
        {
          "internalType": "address",
          "name": "",
          "type": "address"
        }
      ],
      "stateMutability": "view",
      "type": "function"
    },
    {
      "inputs": [],
      "name": "WBNB",
      "outputs": [
        {
          "internalType": "address",
          "name": "",
          "type": "address"
        }
      ],
      "stateMutability": "view",
      "type": "function"
    },
    {
      "inputs": [
        {
          "internalType": "uint256",
          "name": "amountGadDesired",
          "type": "uint256"
        },
        {
          "internalType": "uint256",
          "name": "amountGadMin",
          "type": "uint256"
        },
        {
          "internalType": "uint256",
          "name": "amountBnbMin",
          "type": "uint256"
        },
        {
          "internalType": "uint256",
          "name": "deadline",
          "type": "uint256"
        }
      ],
      "name": "addLiquidityGadBnb",
      "outputs": [
        {
          "internalType": "uint256",
          "name": "aGAD",
          "type": "uint256"
        },
        {
          "internalType": "uint256",
          "name": "aBNB",
          "type": "uint256"
        },
        {
          "internalType": "uint256",
          "name": "lp",
          "type": "uint256"
        }
      ],
      "stateMutability": "nonpayable",
      "type": "function"
    },
    {
      "inputs": [
        {
          "internalType": "uint256",
          "name": "amountGadDesired",
          "type": "uint256"
        },
        {
          "internalType": "uint256",
          "name": "amountUsdtDesired",
          "type": "uint256"
        },
        {
          "internalType": "uint256",
          "name": "amountGadMin",
          "type": "uint256"
        },
        {
          "internalType": "uint256",
          "name": "amountUsdtMin",
          "type": "uint256"
        },
        {
          "internalType": "uint256",
          "name": "deadline",
          "type": "uint256"
        }
      ],
      "name": "addLiquidityGadUsdt",
      "outputs": [
        {
          "internalType": "uint256",
          "name": "aGAD",
          "type": "uint256"
        },
        {
          "internalType": "uint256",
          "name": "aUSDT",
          "type": "uint256"
        },
        {
          "internalType": "uint256",
          "name": "lp",
          "type": "uint256"
        }
      ],
      "stateMutability": "nonpayable",
      "type": "function"
    },
    {
      "inputs": [
        {
          "internalType": "address",
          "name": "",
          "type": "address"
        }
      ],
      "name": "allowedDepositors",
      "outputs": [
        {
          "internalType": "bool",
          "name": "",
          "type": "bool"
        }
      ],
      "stateMutability": "view",
      "type": "function"
    },
    {
      "inputs": [],
      "name": "bnbBalance",
      "outputs": [
        {
          "internalType": "uint256",
          "name": "",
          "type": "uint256"
        }
      ],
      "stateMutability": "view",
      "type": "function"
    },
    {
      "inputs": [],
      "name": "depositBNB",
      "outputs": [],
      "stateMutability": "payable",
      "type": "function"
    },
    {
      "inputs": [
        {
          "internalType": "address",
          "name": "token",
          "type": "address"
        },
        {
          "internalType": "uint256",
          "name": "amount",
          "type": "uint256"
        }
      ],
      "name": "depositToken",
      "outputs": [],
      "stateMutability": "nonpayable",
      "type": "function"
    },
    {
      "inputs": [],
      "name": "gadBalance",
      "outputs": [
        {
          "internalType": "uint256",
          "name": "",
          "type": "uint256"
        }
      ],
      "stateMutability": "view",
      "type": "function"
    },
    {
      "inputs": [],
      "name": "lpReceiver",
      "outputs": [
        {
          "internalType": "address",
          "name": "",
          "type": "address"
        }
      ],
      "stateMutability": "view",
      "type": "function"
    },
    {
      "inputs": [],
      "name": "owner",
      "outputs": [
        {
          "internalType": "address",
          "name": "",
          "type": "address"
        }
      ],
      "stateMutability": "view",
      "type": "function"
    },
    {
      "inputs": [
        {
          "internalType": "address",
          "name": "depositor",
          "type": "address"
        },
        {
          "internalType": "bool",
          "name": "allowed",
          "type": "bool"
        }
      ],
      "name": "setDepositor",
      "outputs": [],
      "stateMutability": "nonpayable",
      "type": "function"
    },
    {
      "inputs": [
        {
          "internalType": "address",
          "name": "newReceiver",
          "type": "address"
        }
      ],
      "name": "setLpReceiver",
      "outputs": [],
      "stateMutability": "nonpayable",
      "type": "function"
    },
    {
      "inputs": [
        {
          "internalType": "address",
          "name": "newOwner",
          "type": "address"
        }
      ],
      "name": "setOwner",
      "outputs": [],
      "stateMutability": "nonpayable",
      "type": "function"
    },
    {
      "inputs": [],
      "name": "usdtBalance",
      "outputs": [
        {
          "internalType": "uint256",
          "name": "",
          "type": "uint256"
        }
      ],
      "stateMutability": "view",
      "type": "function"
    },
    {
      "stateMutability": "payable",
      "type": "receive"
    }
  ],
  "bytecode": "0x61010060405234801562000011575f80fd5b50604051620015c6380380620015c683398101604081905262000034916200017c565b6001600160a01b038616158015906200005557506001600160a01b03851615155b80156200006a57506001600160a01b03841615155b80156200007f57506001600160a01b03831615155b620000bd5760405162461bcd60e51b81526020600482015260096024820152683d32b9379030b2323960b91b60448201526064015b60405180910390fd5b6001600160a01b03821615801590620000de57506001600160a01b03811615155b620001195760405162461bcd60e51b815260206004820152600a6024820152693d32b9379030b236b4b760b11b6044820152606401620000b4565b6001600160a01b0395861660805293851660a05291841660c052831660e0525f80549184166001600160a01b031992831617905560018054929093169116179055620001f9565b80516001600160a01b038116811462000177575f80fd5b919050565b5f805f805f8060c0878903121562000192575f80fd5b6200019d8762000160565b9550620001ad6020880162000160565b9450620001bd6040880162000160565b9350620001cd6060880162000160565b9250620001dd6080880162000160565b9150620001ed60a0880162000160565b90509295509295509295565b60805160a05160c05160e0516112dc620002ea5f395f818161022601528181610585015281816105d00152818161061b015281816106660152818161071f015281816107fb01528181610846015281816109040152818161094f015281816109da0152610ab801525f61034201525f8181610394015281816105af01528181610645015281816106cc0152818161082501528181610b540152610db601525f81816102f1015281816103df01528181610564015281816105fa015281816106a4015281816107da015281816108e30152818161092e0152818161098e01528181610a970152610b8f01526112dc5ff3fe6080604052600436106100fd575f3560e01c8063482edb07116100925780638da5cb5b116100625780638da5cb5b146103135780638dd9500214610331578063ad8f346714610364578063c54e44eb14610383578063d013cbe2146103b6575f80fd5b8063482edb071461026f578063483c2ef0146102835780636f860d74146102c157806381f5aefc146102e0575f80fd5b806326b0064e116100cd57806326b0064e146101f657806332fe7b2614610215578063338b5dea1461024857806342220f3414610267575f80fd5b80630bdcaadf1461013d57806313af40351461016457806318444401146101855780631f0c57fc146101bf575f80fd5b366101395760405134815233907f87cb53a38fc102d7b0db87aed7b34c801c2994738947c12489e9bcbc3cd3ef299060200160405180910390a2005b5f80fd5b348015610148575f80fd5b506101516103c8565b6040519081526020015b60405180910390f35b34801561016f575f80fd5b5061018361017e366004611115565b610456565b005b348015610190575f80fd5b506101a461019f366004611135565b610507565b6040805193845260208401929092529082015260600161015b565b3480156101ca575f80fd5b506001546101de906001600160a01b031681565b6040516001600160a01b03909116815260200161015b565b348015610201575f80fd5b506101a461021036600461116c565b610876565b348015610220575f80fd5b506101de7f000000000000000000000000000000000000000000000000000000000000000081565b348015610253575f80fd5b5061018361026236600461119b565b610ae7565b610183610cfd565b34801561027a575f80fd5b50610151610d9f565b34801561028e575f80fd5b506102b161029d366004611115565b60026020525f908152604090205460ff1681565b604051901515815260200161015b565b3480156102cc575f80fd5b506101836102db3660046111d3565b610ded565b3480156102eb575f80fd5b506101de7f000000000000000000000000000000000000000000000000000000000000000081565b34801561031e575f80fd5b505f546101de906001600160a01b031681565b34801561033c575f80fd5b506101de7f000000000000000000000000000000000000000000000000000000000000000081565b34801561036f575f80fd5b5061018361037e366004611115565b610e74565b34801561038e575f80fd5b506101de7f000000000000000000000000000000000000000000000000000000000000000081565b3480156103c1575f80fd5b5047610151565b6040516370a0823160e01b81523060048201525f907f00000000000000000000000000000000000000000000000000000000000000006001600160a01b0316906370a08231906024015b602060405180830381865afa15801561042d573d5f803e3d5ffd5b505050506040513d601f19601f820116820180604052508101906104519190611208565b905090565b5f546001600160a01b031633146104885760405162461bcd60e51b815260040161047f9061121f565b60405180910390fd5b6001600160a01b0381166104ae5760405162461bcd60e51b815260040161047f90611242565b5f80546040516001600160a01b03808516939216917fb532073b38c83145e3e5135377a08bf9aab55bc0fd7c1179cd4fb995d2a5159c91a35f80546001600160a01b0319166001600160a01b0392909216919091179055565b5f8054819081906001600160a01b031633146105355760405162461bcd60e51b815260040161047f9061121f565b5f8811801561054357505f87115b61055f5760405162461bcd60e51b815260040161047f90611242565b6105aa7f00000000000000000000000000000000000000000000000000000000000000007f00000000000000000000000000000000000000000000000000000000000000005f610f1e565b6105f57f00000000000000000000000000000000000000000000000000000000000000007f00000000000000000000000000000000000000000000000000000000000000005f610f1e565b6106407f00000000000000000000000000000000000000000000000000000000000000007f00000000000000000000000000000000000000000000000000000000000000008a610f1e565b61068b7f00000000000000000000000000000000000000000000000000000000000000007f000000000000000000000000000000000000000000000000000000000000000089610f1e565b60015460405162e8e33760e81b81526001600160a01b037f0000000000000000000000000000000000000000000000000000000000000000811660048301527f000000000000000000000000000000000000000000000000000000000000000081166024830152604482018b9052606482018a90526084820189905260a4820188905291821660c482015260e481018690527f00000000000000000000000000000000000000000000000000000000000000009091169063e8e3370090610104016060604051808303815f875af1158015610768573d5f803e3d5ffd5b505050506040513d601f19601f8201168201806040525081019061078c9190611260565b604080518481526020810184905290810182905292955090935091507fb367b4f9087a7460631e6253ddabf2c09ad7647f151c3f84873e7c0fe429283e9060600160405180910390a16108207f00000000000000000000000000000000000000000000000000000000000000007f00000000000000000000000000000000000000000000000000000000000000005f610f1e565b61086b7f00000000000000000000000000000000000000000000000000000000000000007f00000000000000000000000000000000000000000000000000000000000000005f610f1e565b955095509592505050565b5f8054819081906001600160a01b031633146108a45760405162461bcd60e51b815260040161047f9061121f565b5f87116108de5760405162461bcd60e51b81526020600482015260086024820152671e995c9bc819d85960c21b604482015260640161047f565b6109297f00000000000000000000000000000000000000000000000000000000000000007f00000000000000000000000000000000000000000000000000000000000000005f610f1e565b6109747f00000000000000000000000000000000000000000000000000000000000000007f000000000000000000000000000000000000000000000000000000000000000089610f1e565b60015460405163f305d71960e01b81526001600160a01b037f000000000000000000000000000000000000000000000000000000000000000081166004830152602482018a90526044820189905260648201889052918216608482015260a481018690527f00000000000000000000000000000000000000000000000000000000000000009091169063f305d71990879060c40160606040518083038185885af1158015610a24573d5f803e3d5ffd5b50505050506040513d601f19601f82011682018060405250810190610a499190611260565b604080518481526020810184905290810182905292955090935091507fe3b96975da98c1f7ec252d42bb15f7bc2928db0152fd22d9dfbf527220c847df9060600160405180910390a1610add7f00000000000000000000000000000000000000000000000000000000000000007f00000000000000000000000000000000000000000000000000000000000000005f610f1e565b9450945094915050565b335f9081526002602052604090205460ff16610b335760405162461bcd60e51b815260206004820152600b60248201526a1b9bdd08185b1b1bddd95960aa1b604482015260640161047f565b5f8111610b525760405162461bcd60e51b815260040161047f90611242565b7f00000000000000000000000000000000000000000000000000000000000000006001600160a01b0316826001600160a01b03161480610bc357507f00000000000000000000000000000000000000000000000000000000000000006001600160a01b0316826001600160a01b0316145b610c035760405162461bcd60e51b81526020600482015260116024820152701d1bdad95b881b9bdd08185b1b1bddd959607a1b604482015260640161047f565b6040516323b872dd60e01b8152336004820152306024820152604481018290526001600160a01b038316906323b872dd906064016020604051808303815f875af1158015610c53573d5f803e3d5ffd5b505050506040513d601f19601f82011682018060405250810190610c77919061128b565b610cb95760405162461bcd60e51b81526020600482015260136024820152721d1c985b9cd9995c919c9bdb4819985a5b1959606a1b604482015260640161047f565b60405181815233906001600160a01b038416907f4b3f81827ede20c81afbf1bb77b954afcdcae24d391d99042310cb1d9210dd579060200160405180910390a35050565b335f9081526002602052604090205460ff16610d495760405162461bcd60e51b815260206004820152600b60248201526a1b9bdd08185b1b1bddd95960aa1b604482015260640161047f565b5f3411610d685760405162461bcd60e51b815260040161047f90611242565b60405134815233907f87cb53a38fc102d7b0db87aed7b34c801c2994738947c12489e9bcbc3cd3ef299060200160405180910390a2565b6040516370a0823160e01b81523060048201525f907f00000000000000000000000000000000000000000000000000000000000000006001600160a01b0316906370a0823190602401610412565b5f546001600160a01b03163314610e165760405162461bcd60e51b815260040161047f9061121f565b6001600160a01b0382165f81815260026020908152604091829020805460ff191685151590811790915591519182527f2444fb0d1fe84b2795e40013e1c54a31c773bfd08c00b4e63b8dd7fce04b5d00910160405180910390a25050565b5f546001600160a01b03163314610e9d5760405162461bcd60e51b815260040161047f9061121f565b6001600160a01b038116610ec35760405162461bcd60e51b815260040161047f90611242565b6001546040516001600160a01b038084169216907f344b985461c99963c8a6eb84c2de53a4f44831a78e94fac76f71f00d3a6e8e4c905f90a3600180546001600160a01b0319166001600160a01b0392909216919091179055565b604051636eb1769f60e11b81523060048201526001600160a01b03838116602483015284915f9183169063dd62ed3e90604401602060405180830381865afa158015610f6c573d5f803e3d5ffd5b505050506040513d601f19601f82011682018060405250810190610f909190611208565b905080156110485760405163095ea7b360e01b81526001600160a01b0385811660048301525f602483015283169063095ea7b3906044016020604051808303815f875af1158015610fe3573d5f803e3d5ffd5b505050506040513d601f19601f82011682018060405250810190611007919061128b565b6110485760405162461bcd60e51b8152602060048201526012602482015271185c1c1c9bdd99481c995cd95d0819985a5b60721b604482015260640161047f565b60405163095ea7b360e01b81526001600160a01b0385811660048301526024820185905283169063095ea7b3906044016020604051808303815f875af1158015611094573d5f803e3d5ffd5b505050506040513d601f19601f820116820180604052508101906110b8919061128b565b6110f35760405162461bcd60e51b815260206004820152600c60248201526b185c1c1c9bdd994819985a5b60a21b604482015260640161047f565b5050505050565b80356001600160a01b0381168114611110575f80fd5b919050565b5f60208284031215611125575f80fd5b61112e826110fa565b9392505050565b5f805f805f60a08688031215611149575f80fd5b505083359560208501359550604085013594606081013594506080013592509050565b5f805f806080858703121561117f575f80fd5b5050823594602084013594506040840135936060013592509050565b5f80604083850312156111ac575f80fd5b6111b5836110fa565b946020939093013593505050565b80151581146111d0575f80fd5b50565b5f80604083850312156111e4575f80fd5b6111ed836110fa565b915060208301356111fd816111c3565b809150509250929050565b5f60208284031215611218575f80fd5b5051919050565b6020808252600990820152683737ba1037bbb732b960b91b604082015260600190565b6020808252600490820152637a65726f60e01b604082015260600190565b5f805f60608486031215611272575f80fd5b8351925060208401519150604084015190509250925092565b5f6020828403121561129b575f80fd5b815161112e816111c356fea26469706673582212204d8aa7d3fe5e7814d0863354ac28f566c65f465d54bdad978f2069f4c11f04ba64736f6c63430008180033",
  "linkReferences": {},
  "deployedLinkReferences": {},
  "immutableReferences": {
    "3480": [
      {
        "length": 32,
        "start": 753
      },
      {
        "length": 32,
        "start": 991
      },
      {
        "length": 32,
        "start": 1380
      },
      {
        "length": 32,
        "start": 1530
      },
      {
        "length": 32,
        "start": 1700
      },
      {
        "length": 32,
        "start": 2010
      },
      {
        "length": 32,
        "start": 2275
      },
      {
        "length": 32,
        "start": 2350
      },
      {
        "length": 32,
        "start": 2446
      },
      {
        "length": 32,
        "start": 2711
      },
      {
        "length": 32,
        "start": 2959
      }
    ],
    "3482": [
      {
        "length": 32,
        "start": 916
      },
      {
        "length": 32,
        "start": 1455
      },
      {
        "length": 32,
        "start": 1605
      },
      {
        "length": 32,
        "start": 1740
      },
      {
        "length": 32,
        "start": 2085
      },
      {
        "length": 32,
        "start": 2900
      },
      {
        "length": 32,
        "start": 3510
      }
    ],
    "3484": [
      {
        "length": 32,
        "start": 834
      }
    ],
    "3487": [
      {
        "length": 32,
        "start": 550
      },
      {
        "length": 32,
        "start": 1413
      },
      {
        "length": 32,
        "start": 1488
      },
      {
        "length": 32,
        "start": 1563
      },
      {
        "length": 32,
        "start": 1638
      },
      {
        "length": 32,
        "start": 1823
      },
      {
        "length": 32,
        "start": 2043
      },
      {
        "length": 32,
        "start": 2118
      },
      {
        "length": 32,
        "start": 2308
      },
      {
        "length": 32,
        "start": 2383
      },
      {
        "length": 32,
        "start": 2522
      },
      {
        "length": 32,
        "start": 2744
      }
    ]
  },
  "inputSourceName": "project/src/LiquidityVault.sol",
  "buildInfoId": "solc-0_8_24-a9c253e7292f9857ab4ecda4a3cdad80ad94a58c"
}