{"project/src/Marketplace.sol":{"Marketplace":{"abi":[{"inputs":[{"internalType":"address","name":"_usdt","type":"address"},{"internalType":"address","name":"_vault","type":"address"}],"stateMutability":"nonpayable","type":"constructor"},{"anonymous":false,"inputs":[{"indexed":true,"internalType":"address","name":"nft","type":"address"},{"indexed":true,"internalType":"uint256","name":"tokenId","type":"uint256"},{"indexed":false,"internalType":"address","name":"buyer","type":"address"},{"indexed":false,"internalType":"address","name":"seller","type":"address"},{"indexed":false,"internalType":"address","name":"currency","type":"address"},{"indexed":false,"internalType":"uint256","name":"price","type":"uint256"},{"indexed":false,"internalType":"uint256","name":"feeToVault","type":"uint256"},{"indexed":false,"internalType":"uint256","name":"royaltyToCreator","type":"uint256"}],"name":"Bought","type":"event"},{"anonymous":false,"inputs":[{"indexed":true,"internalType":"address","name":"nft","type":"address"},{"indexed":true,"internalType":"uint256","name":"tokenId","type":"uint256"},{"indexed":false,"internalType":"address","name":"seller","type":"address"}],"name":"Delisted","type":"event"},{"anonymous":false,"inputs":[{"indexed":true,"internalType":"address","name":"nft","type":"address"},{"indexed":true,"internalType":"uint256","name":"tokenId","type":"uint256"},{"indexed":false,"internalType":"address","name":"seller","type":"address"},{"indexed":false,"internalType":"address","name":"currency","type":"address"},{"indexed":false,"internalType":"uint256","name":"price","type":"uint256"}],"name":"Listed","type":"event"},{"anonymous":false,"inputs":[{"indexed":true,"internalType":"address","name":"oldOwner","type":"address"},{"indexed":true,"internalType":"address","name":"newOwner","type":"address"}],"name":"OwnerChanged","type":"event"},{"anonymous":false,"inputs":[{"indexed":false,"internalType":"uint96","name":"oldBps","type":"uint96"},{"indexed":false,"internalType":"uint96","name":"newBps","type":"uint96"}],"name":"PlatformFeeChanged","type":"event"},{"anonymous":false,"inputs":[{"indexed":true,"internalType":"address","name":"oldVault","type":"address"},{"indexed":true,"internalType":"address","name":"newVault","type":"address"}],"name":"VaultChanged","type":"event"},{"inputs":[],"name":"USDT","outputs":[{"internalType":"address","name":"","type":"address"}],"stateMutability":"view","type":"function"},{"inputs":[{"internalType":"address","name":"nft","type":"address"},{"internalType":"uint256","name":"tokenId","type":"uint256"},{"internalType":"address","name":"seller","type":"address"}],"name":"buy","outputs":[],"stateMutability":"payable","type":"function"},{"inputs":[{"internalType":"address","name":"nft","type":"address"},{"internalType":"uint256","name":"tokenId","type":"uint256"}],"name":"delist","outputs":[],"stateMutability":"nonpayable","type":"function"},{"inputs":[{"internalType":"address","name":"nft","type":"address"},{"internalType":"uint256","name":"tokenId","type":"uint256"},{"internalType":"address","name":"currency","type":"address"},{"internalType":"uint256","name":"price","type":"uint256"}],"name":"list","outputs":[],"stateMutability":"nonpayable","type":"function"},{"inputs":[{"internalType":"bytes32","name":"","type":"bytes32"}],"name":"listings","outputs":[{"internalType":"address","name":"nft","type":"address"},{"internalType":"uint256","name":"tokenId","type":"uint256"},{"internalType":"address","name":"seller","type":"address"},{"internalType":"address","name":"currency","type":"address"},{"internalType":"uint256","name":"price","type":"uint256"},{"internalType":"bool","name":"active","type":"bool"}],"stateMutability":"view","type":"function"},{"inputs":[],"name":"owner","outputs":[{"internalType":"address","name":"","type":"address"}],"stateMutability":"view","type":"function"},{"inputs":[],"name":"platformFeeBps","outputs":[{"internalType":"uint96","name":"","type":"uint96"}],"stateMutability":"view","type":"function"},{"inputs":[{"internalType":"address","name":"newOwner","type":"address"}],"name":"setOwner","outputs":[],"stateMutability":"nonpayable","type":"function"},{"inputs":[{"internalType":"uint96","name":"bps","type":"uint96"}],"name":"setPlatformFeeBps","outputs":[],"stateMutability":"nonpayable","type":"function"},{"inputs":[{"internalType":"address","name":"v","type":"address"}],"name":"setVault","outputs":[],"stateMutability":"nonpayable","type":"function"},{"inputs":[],"name":"vault","outputs":[{"internalType":"contract ILiquidityVaultLike","name":"","type":"address"}],"stateMutability":"view","type":"function"},{"stateMutability":"payable","type":"receive"}],"evm":{"bytecode":{"linkReferences":{},"object":"60a0604052600180546001600160a01b0316607d60a11b17905534801562000025575f80fd5b506040516200144f3803806200144f8339810160408190526200004891620000fb565b6001600160a01b038216158015906200006957506001600160a01b03811615155b620000a95760405162461bcd60e51b8152600401620000a0906020808252600490820152637a65726f60e01b604082015260600190565b60405180910390fd5b600180546001600160a01b031990811633179091556001600160a01b039283166080526002805492909316911617905562000131565b80516001600160a01b0381168114620000f6575f80fd5b919050565b5f80604083850312156200010d575f80fd5b6200011883620000df565b91506200012860208401620000df565b90509250929050565b6080516112fe620001515f395f81816102360152610b7201526112fe5ff3fe60806040526004361061009d575f3560e01c8063c18b8db411610062578063c18b8db414610181578063c54e44eb14610225578063db61c76e14610258578063ea8cdb1f1461026b578063f074258e1461028a578063fbfa77cf146102a9575f80fd5b806313af4035146100a857806322dcd13e146100c957806360b2cf101461010c5780636817031b1461012b5780638da5cb5b1461014a575f80fd5b366100a457005b5f80fd5b3480156100b3575f80fd5b506100c76100c23660046110cf565b6102c8565b005b3480156100d4575f80fd5b506001546100ef90600160a01b90046001600160601b031681565b6040516001600160601b0390911681526020015b60405180910390f35b348015610117575f80fd5b506100c76101263660046110f1565b610395565b348015610136575f80fd5b506100c76101453660046110cf565b61047b565b348015610155575f80fd5b50600154610169906001600160a01b031681565b6040516001600160a01b039091168152602001610103565b34801561018c575f80fd5b506101e361019b366004611117565b600360208190525f91825260409091208054600182015460028301549383015460048401546005909401546001600160a01b0393841695929492841693909116919060ff1686565b604080516001600160a01b03978816815260208101969096529386169385019390935293166060830152608082019290925290151560a082015260c001610103565b348015610230575f80fd5b506101697f000000000000000000000000000000000000000000000000000000000000000081565b6100c761026636600461112e565b61053f565b348015610276575f80fd5b506100c761028536600461116d565b610a94565b348015610295575f80fd5b506100c76102a43660046111b2565b610e62565b3480156102b4575f80fd5b50600254610169906001600160a01b031681565b6001546001600160a01b031633146102fb5760405162461bcd60e51b81526004016102f2906111dc565b60405180910390fd5b6001600160a01b03811661033a5760405162461bcd60e51b81526004016102f2906020808252600490820152637a65726f60e01b604082015260600190565b6001546040516001600160a01b038084169216907fb532073b38c83145e3e5135377a08bf9aab55bc0fd7c1179cd4fb995d2a5159c905f90a3600180546001600160a01b0319166001600160a01b0392909216919091179055565b6001546001600160a01b031633146103bf5760405162461bcd60e51b81526004016102f2906111dc565b6103e8816001600160601b031611156104055760405162461bcd60e51b81526020600482015260086024820152670e8dede40d0d2ced60c31b60448201526064016102f2565b600154604080516001600160601b03600160a01b9093048316815291831660208301527f61fa658fb62b67640c114ea5cebd972e116f9c06900a96894cd4f43a41e0a377910160405180910390a1600180546001600160601b03909216600160a01b026001600160a01b03909216919091179055565b6001546001600160a01b031633146104a55760405162461bcd60e51b81526004016102f2906111dc565b6001600160a01b0381166104e45760405162461bcd60e51b81526004016102f2906020808252600490820152637a65726f60e01b604082015260600190565b6002546040516001600160a01b038084169216907f16e2accad9173abff57b295b56993ec5d86b3cbf791fea02f02a6616463754ea905f90a3600280546001600160a01b0319166001600160a01b0392909216919091179055565b5f541561057b5760405162461bcd60e51b815260206004820152600a6024820152697265656e7472616e637960b01b60448201526064016102f2565b60015f908155604080516001600160a01b038087166020830152918101859052908316606082015260800160408051601f1981840301815291815281516020928301205f8181526003909352912060058101549192509060ff1661060c5760405162461bcd60e51b8152602060048201526008602482015267696e61637469766560c01b60448201526064016102f2565b60058101805460ff19169055600481015460038201546001600160a01b031661066f5780341461066a5760405162461bcd60e51b81526020600482015260096024820152686261642076616c756560b81b60448201526064016102f2565b610720565b60038201546040516323b872dd60e01b8152336004820152306024820152604481018390526001600160a01b03909116906323b872dd906064016020604051808303815f875af11580156106c5573d5f803e3d5ffd5b505050506040513d601f19601f820116820180604052508101906106e991906111ff565b6107205760405162461bcd60e51b81526020600482015260086024820152671c185e4819985a5b60c21b60448201526064016102f2565b60405163152a902d60e11b815260048101869052602481018290525f9081906001600160a01b03891690632a55205a906044016040805180830381865afa15801561076d573d5f803e3d5ffd5b505050506040513d601f19601f82011682018060405250810190610791919061121e565b60015491935091505f90612710906107b990600160a01b90046001600160601b03168661125e565b6107c3919061127b565b90505f816107d1848761129a565b6107db919061129a565b60038701549091506107f7906001600160a01b03168585610f58565b60038601546001600160a01b03166108725760025f9054906101000a90046001600160a01b03166001600160a01b03166342220f34836040518263ffffffff1660e01b81526004015f604051808303818588803b158015610856575f80fd5b505af1158015610868573d5f803e3d5ffd5b505050505061098c565b600386015460025460405163095ea7b360e01b81526001600160a01b0391821660048201526024810185905291169063095ea7b3906044016020604051808303815f875af11580156108c6573d5f803e3d5ffd5b505050506040513d601f19601f820116820180604052508101906108ea91906111ff565b6109265760405162461bcd60e51b815260206004820152600d60248201526c185c1c1c9bdd99481d985d5b1d609a1b60448201526064016102f2565b60025460038701546040516319c5aef560e11b81526001600160a01b0391821660048201526024810185905291169063338b5dea906044015f604051808303815f87803b158015610975575f80fd5b505af1158015610987573d5f803e3d5ffd5b505050505b600386015460028701546109ad916001600160a01b03908116911683610f58565b6002860154604051632142170760e11b81526001600160a01b039182166004820152336024820152604481018b9052908b16906342842e0e906064015f604051808303815f87803b158015610a00575f80fd5b505af1158015610a12573d5f803e3d5ffd5b5050505060028601546003870154604080513381526001600160a01b03938416602082015291831690820152606081018790526080810184905260a081018590528a918c16907f209076f781eef9a38ce7076291c49ff03033220379d6a82839f4e22bd6e0c2fc9060c00160405180910390a350505f80555050505050505050565b6040516331a9108f60e11b81526004810184905233906001600160a01b03861690636352211e90602401602060405180830381865afa158015610ad9573d5f803e3d5ffd5b505050506040513d601f19601f82011682018060405250810190610afd91906112ad565b6001600160a01b031614610b235760405162461bcd60e51b81526004016102f2906111dc565b5f8111610b5f5760405162461bcd60e51b815260206004820152600a6024820152697a65726f20707269636560b01b60448201526064016102f2565b6001600160a01b0382161580610ba657507f00000000000000000000000000000000000000000000000000000000000000006001600160a01b0316826001600160a01b0316145b610be95760405162461bcd60e51b8152602060048201526014602482015273756e737570706f727465642063757272656e637960601b60448201526064016102f2565b60405163020604bf60e21b81526004810184905230906001600160a01b0386169063081812fc90602401602060405180830381865afa158015610c2e573d5f803e3d5ffd5b505050506040513d601f19601f82011682018060405250810190610c5291906112ad565b6001600160a01b03161480610cce575060405163e985e9c560e01b81523360048201523060248201526001600160a01b0385169063e985e9c590604401602060405180830381865afa158015610caa573d5f803e3d5ffd5b505050506040513d601f19601f82011682018060405250810190610cce91906111ff565b610d105760405162461bcd60e51b8152602060048201526013602482015272617070726f7665206d61726b6574706c61636560681b60448201526064016102f2565b604080516001600160a01b03861660208201529081018490523360608201525f9060800160408051601f19818403018152828252805160209182012060c0840183526001600160a01b03808a168086528584018a8152338787018181528b851660608a0190815260808a018c8152600160a08c018181525f8a815260039b8c90528c90209c518d54908a166001600160a01b0319918216178e559651918d0191909155925160028c0180549189169187169190911790559051978a01805498909616979093169690961790935551600487015592516005909501805495151560ff19909616959095179094559151919350869290917f462ae7fe8ebe6dca41694814c3bef6023e5166a98d66314d9bedef1a9e5a561a91610e5391889088906001600160a01b039384168152919092166020820152604081019190915260600190565b60405180910390a35050505050565b604080516001600160a01b03841660208201529081018290523360608201525f9060800160408051601f1981840301815291815281516020928301205f8181526003909352912060058101549192509060ff168015610ecd575060028101546001600160a01b031633145b610f065760405162461bcd60e51b815260206004820152600a6024820152696e6f206c697374696e6760b01b60448201526064016102f2565b60058101805460ff1916905560405133815283906001600160a01b038616907f9db7ba4a2920e0c8066731bb48bca5ee2a652267b7e73d0502962c29f1e41ead9060200160405180910390a350505050565b805f03610f6457505050565b6001600160a01b038316611006575f826001600160a01b0316826040515f6040518083038185875af1925050503d805f8114610fbb576040519150601f19603f3d011682016040523d82523d5f602084013e610fc0565b606091505b50509050806110005760405162461bcd60e51b815260206004820152600c60248201526b1c185e48189b988819985a5b60a21b60448201526064016102f2565b50505050565b60405163a9059cbb60e01b81526001600160a01b0383811660048301526024820183905284169063a9059cbb906044016020604051808303815f875af1158015611052573d5f803e3d5ffd5b505050506040513d601f19601f8201168201806040525081019061107691906111ff565b6110b35760405162461bcd60e51b815260206004820152600e60248201526d1c185e48195c98cc8c0819985a5b60921b60448201526064016102f2565b505050565b6001600160a01b03811681146110cc575f80fd5b50565b5f602082840312156110df575f80fd5b81356110ea816110b8565b9392505050565b5f60208284031215611101575f80fd5b81356001600160601b03811681146110ea575f80fd5b5f60208284031215611127575f80fd5b5035919050565b5f805f60608486031215611140575f80fd5b833561114b816110b8565b9250602084013591506040840135611162816110b8565b809150509250925092565b5f805f8060808587031215611180575f80fd5b843561118b816110b8565b93506020850135925060408501356111a2816110b8565b9396929550929360600135925050565b5f80604083850312156111c3575f80fd5b82356111ce816110b8565b946020939093013593505050565b6020808252600990820152683737ba1037bbb732b960b91b604082015260600190565b5f6020828403121561120f575f80fd5b815180151581146110ea575f80fd5b5f806040838503121561122f575f80fd5b825161123a816110b8565b6020939093015192949293505050565b634e487b7160e01b5f52601160045260245ffd5b80820281158282048414176112755761127561124a565b92915050565b5f8261129557634e487b7160e01b5f52601260045260245ffd5b500490565b818103818111156112755761127561124a565b5f602082840312156112bd575f80fd5b81516110ea816110b856fea2646970667358221220fa155a25c38f7cab312d9de454e009e834e6ba2a941cb9c8439576ff83cecf9a64736f6c63430008180033","opcodes":"PUSH1 0xA0 PUSH1 0x40 MSTORE PUSH1 0x1 DUP1 SLOAD PUSH1 0x1 PUSH1 0x1 PUSH1 0xA0 SHL SUB AND PUSH1 0x7D PUSH1 0xA1 SHL OR SWAP1 SSTORE CALLVALUE DUP1 ISZERO PUSH3 0x25 JUMPI PUSH0 DUP1 REVERT JUMPDEST POP PUSH1 0x40 MLOAD PUSH3 0x144F CODESIZE SUB DUP1 PUSH3 0x144F DUP4 CODECOPY DUP2 ADD PUSH1 0x40 DUP2 SWAP1 MSTORE PUSH3 0x48 SWAP2 PUSH3 0xFB JUMP JUMPDEST PUSH1 0x1 PUSH1 0x1 PUSH1 0xA0 SHL SUB DUP3 AND ISZERO DUP1 ISZERO SWAP1 PUSH3 0x69 JUMPI POP PUSH1 0x1 PUSH1 0x1 PUSH1 0xA0 SHL SUB DUP2 AND ISZERO ISZERO JUMPDEST PUSH3 0xA9 JUMPI PUSH1 0x40 MLOAD PUSH3 0x461BCD PUSH1 0xE5 SHL DUP2 MSTORE PUSH1 0x4 ADD PUSH3 0xA0 SWAP1 PUSH1 0x20 DUP1 DUP3 MSTORE PUSH1 0x4 SWAP1 DUP3 ADD MSTORE PUSH4 0x7A65726F PUSH1 0xE0 SHL PUSH1 0x40 DUP3 ADD MSTORE PUSH1 0x60 ADD SWAP1 JUMP JUMPDEST PUSH1 0x40 MLOAD DUP1 SWAP2 SUB SWAP1 REVERT JUMPDEST PUSH1 0x1 DUP1 SLOAD PUSH1 0x1 PUSH1 0x1 PUSH1 0xA0 SHL SUB NOT SWAP1 DUP2 AND CALLER OR SWAP1 SWAP2 SSTORE PUSH1 0x1 PUSH1 0x1 PUSH1 0xA0 SHL SUB SWAP3 DUP4 AND PUSH1 0x80 MSTORE PUSH1 0x2 DUP1 SLOAD SWAP3 SWAP1 SWAP4 AND SWAP2 AND OR SWAP1 SSTORE PUSH3 0x131 JUMP JUMPDEST DUP1 MLOAD PUSH1 0x1 PUSH1 0x1 PUSH1 0xA0 SHL SUB DUP2 AND DUP2 EQ PUSH3 0xF6 JUMPI PUSH0 DUP1 REVERT JUMPDEST SWAP2 SWAP1 POP JUMP JUMPDEST PUSH0 DUP1 PUSH1 0x40 DUP4 DUP6 SUB SLT ISZERO PUSH3 0x10D JUMPI PUSH0 DUP1 REVERT JUMPDEST PUSH3 0x118 DUP4 PUSH3 0xDF JUMP JUMPDEST SWAP2 POP PUSH3 0x128 PUSH1 0x20 DUP5 ADD PUSH3 0xDF JUMP JUMPDEST SWAP1 POP SWAP3 POP SWAP3 SWAP1 POP JUMP JUMPDEST PUSH1 0x80 MLOAD PUSH2 0x12FE PUSH3 0x151 PUSH0 CODECOPY PUSH0 DUP2 DUP2 PUSH2 0x236 ADD MSTORE PUSH2 0xB72 ADD MSTORE PUSH2 0x12FE PUSH0 RETURN INVALID PUSH1 0x80 PUSH1 0x40 MSTORE PUSH1 0x4 CALLDATASIZE LT PUSH2 0x9D JUMPI PUSH0 CALLDATALOAD PUSH1 0xE0 SHR DUP1 PUSH4 0xC18B8DB4 GT PUSH2 0x62 JUMPI DUP1 PUSH4 0xC18B8DB4 EQ PUSH2 0x181 JUMPI DUP1 PUSH4 0xC54E44EB EQ PUSH2 0x225 JUMPI DUP1 PUSH4 0xDB61C76E EQ PUSH2 0x258 JUMPI DUP1 PUSH4 0xEA8CDB1F EQ PUSH2 0x26B JUMPI DUP1 PUSH4 0xF074258E EQ PUSH2 0x28A JUMPI DUP1 PUSH4 0xFBFA77CF EQ PUSH2 0x2A9 JUMPI PUSH0 DUP1 REVERT JUMPDEST DUP1 PUSH4 0x13AF4035 EQ PUSH2 0xA8 JUMPI DUP1 PUSH4 0x22DCD13E EQ PUSH2 0xC9 JUMPI DUP1 PUSH4 0x60B2CF10 EQ PUSH2 0x10C JUMPI DUP1 PUSH4 0x6817031B EQ PUSH2 0x12B JUMPI DUP1 PUSH4 0x8DA5CB5B EQ PUSH2 0x14A JUMPI PUSH0 DUP1 REVERT JUMPDEST CALLDATASIZE PUSH2 0xA4 JUMPI STOP JUMPDEST PUSH0 DUP1 REVERT JUMPDEST CALLVALUE DUP1 ISZERO PUSH2 0xB3 JUMPI PUSH0 DUP1 REVERT JUMPDEST POP PUSH2 0xC7 PUSH2 0xC2 CALLDATASIZE PUSH1 0x4 PUSH2 0x10CF JUMP JUMPDEST PUSH2 0x2C8 JUMP JUMPDEST STOP JUMPDEST CALLVALUE DUP1 ISZERO PUSH2 0xD4 JUMPI PUSH0 DUP1 REVERT JUMPDEST POP PUSH1 0x1 SLOAD PUSH2 0xEF SWAP1 PUSH1 0x1 PUSH1 0xA0 SHL SWAP1 DIV PUSH1 0x1 PUSH1 0x1 PUSH1 0x60 SHL SUB AND DUP2 JUMP JUMPDEST PUSH1 0x40 MLOAD PUSH1 0x1 PUSH1 0x1 PUSH1 0x60 SHL SUB SWAP1 SWAP2 AND DUP2 MSTORE PUSH1 0x20 ADD JUMPDEST PUSH1 0x40 MLOAD DUP1 SWAP2 SUB SWAP1 RETURN JUMPDEST CALLVALUE DUP1 ISZERO PUSH2 0x117 JUMPI PUSH0 DUP1 REVERT JUMPDEST POP PUSH2 0xC7 PUSH2 0x126 CALLDATASIZE PUSH1 0x4 PUSH2 0x10F1 JUMP JUMPDEST PUSH2 0x395 JUMP JUMPDEST CALLVALUE DUP1 ISZERO PUSH2 0x136 JUMPI PUSH0 DUP1 REVERT JUMPDEST POP PUSH2 0xC7 PUSH2 0x145 CALLDATASIZE PUSH1 0x4 PUSH2 0x10CF JUMP JUMPDEST PUSH2 0x47B JUMP JUMPDEST CALLVALUE DUP1 ISZERO PUSH2 0x155 JUMPI PUSH0 DUP1 REVERT JUMPDEST POP PUSH1 0x1 SLOAD PUSH2 0x169 SWAP1 PUSH1 0x1 PUSH1 0x1 PUSH1 0xA0 SHL SUB AND DUP2 JUMP JUMPDEST PUSH1 0x40 MLOAD PUSH1 0x1 PUSH1 0x1 PUSH1 0xA0 SHL SUB SWAP1 SWAP2 AND DUP2 MSTORE PUSH1 0x20 ADD PUSH2 0x103 JUMP JUMPDEST CALLVALUE DUP1 ISZERO PUSH2 0x18C JUMPI PUSH0 DUP1 REVERT JUMPDEST POP PUSH2 0x1E3 PUSH2 0x19B CALLDATASIZE PUSH1 0x4 PUSH2 0x1117 JUMP JUMPDEST PUSH1 0x3 PUSH1 0x20 DUP2 SWAP1 MSTORE PUSH0 SWAP2 DUP3 MSTORE PUSH1 0x40 SWAP1 SWAP2 KECCAK256 DUP1 SLOAD PUSH1 0x1 DUP3 ADD SLOAD PUSH1 0x2 DUP4 ADD SLOAD SWAP4 DUP4 ADD SLOAD PUSH1 0x4 DUP5 ADD SLOAD PUSH1 0x5 SWAP1 SWAP5 ADD SLOAD PUSH1 0x1 PUSH1 0x1 PUSH1 0xA0 SHL SUB SWAP4 DUP5 AND SWAP6 SWAP3 SWAP5 SWAP3 DUP5 AND SWAP4 SWAP1 SWAP2 AND SWAP2 SWAP1 PUSH1 0xFF AND DUP7 JUMP JUMPDEST PUSH1 0x40 DUP1 MLOAD PUSH1 0x1 PUSH1 0x1 PUSH1 0xA0 SHL SUB SWAP8 DUP9 AND DUP2 MSTORE PUSH1 0x20 DUP2 ADD SWAP7 SWAP1 SWAP7 MSTORE SWAP4 DUP7 AND SWAP4 DUP6 ADD SWAP4 SWAP1 SWAP4 MSTORE SWAP4 AND PUSH1 0x60 DUP4 ADD MSTORE PUSH1 0x80 DUP3 ADD SWAP3 SWAP1 SWAP3 MSTORE SWAP1 ISZERO ISZERO PUSH1 0xA0 DUP3 ADD MSTORE PUSH1 0xC0 ADD PUSH2 0x103 JUMP JUMPDEST CALLVALUE DUP1 ISZERO PUSH2 0x230 JUMPI PUSH0 DUP1 REVERT JUMPDEST POP PUSH2 0x169 PUSH32 0x0 DUP2 JUMP JUMPDEST PUSH2 0xC7 PUSH2 0x266 CALLDATASIZE PUSH1 0x4 PUSH2 0x112E JUMP JUMPDEST PUSH2 0x53F JUMP JUMPDEST CALLVALUE DUP1 ISZERO PUSH2 0x276 JUMPI PUSH0 DUP1 REVERT JUMPDEST POP PUSH2 0xC7 PUSH2 0x285 CALLDATASIZE PUSH1 0x4 PUSH2 0x116D JUMP JUMPDEST PUSH2 0xA94 JUMP JUMPDEST CALLVALUE DUP1 ISZERO PUSH2 0x295 JUMPI PUSH0 DUP1 REVERT JUMPDEST POP PUSH2 0xC7 PUSH2 0x2A4 CALLDATASIZE PUSH1 0x4 PUSH2 0x11B2 JUMP JUMPDEST PUSH2 0xE62 JUMP JUMPDEST CALLVALUE DUP1 ISZERO PUSH2 0x2B4 JUMPI PUSH0 DUP1 REVERT JUMPDEST POP PUSH1 0x2 SLOAD PUSH2 0x169 SWAP1 PUSH1 0x1 PUSH1 0x1 PUSH1 0xA0 SHL SUB AND DUP2 JUMP JUMPDEST PUSH1 0x1 SLOAD PUSH1 0x1 PUSH1 0x1 PUSH1 0xA0 SHL SUB AND CALLER EQ PUSH2 0x2FB JUMPI PUSH1 0x40 MLOAD PUSH3 0x461BCD PUSH1 0xE5 SHL DUP2 MSTORE PUSH1 0x4 ADD PUSH2 0x2F2 SWAP1 PUSH2 0x11DC JUMP JUMPDEST PUSH1 0x40 MLOAD DUP1 SWAP2 SUB SWAP1 REVERT JUMPDEST PUSH1 0x1 PUSH1 0x1 PUSH1 0xA0 SHL SUB DUP2 AND PUSH2 0x33A JUMPI PUSH1 0x40 MLOAD PUSH3 0x461BCD PUSH1 0xE5 SHL DUP2 MSTORE PUSH1 0x4 ADD PUSH2 0x2F2 SWAP1 PUSH1 0x20 DUP1 DUP3 MSTORE PUSH1 0x4 SWAP1 DUP3 ADD MSTORE PUSH4 0x7A65726F PUSH1 0xE0 SHL PUSH1 0x40 DUP3 ADD MSTORE PUSH1 0x60 ADD SWAP1 JUMP JUMPDEST PUSH1 0x1 SLOAD PUSH1 0x40 MLOAD PUSH1 0x1 PUSH1 0x1 PUSH1 0xA0 SHL SUB DUP1 DUP5 AND SWAP3 AND SWAP1 PUSH32 0xB532073B38C83145E3E5135377A08BF9AAB55BC0FD7C1179CD4FB995D2A5159C SWAP1 PUSH0 SWAP1 LOG3 PUSH1 0x1 DUP1 SLOAD PUSH1 0x1 PUSH1 0x1 PUSH1 0xA0 SHL SUB NOT AND PUSH1 0x1 PUSH1 0x1 PUSH1 0xA0 SHL SUB SWAP3 SWAP1 SWAP3 AND SWAP2 SWAP1 SWAP2 OR SWAP1 SSTORE JUMP JUMPDEST PUSH1 0x1 SLOAD PUSH1 0x1 PUSH1 0x1 PUSH1 0xA0 SHL SUB AND CALLER EQ PUSH2 0x3BF JUMPI PUSH1 0x40 MLOAD PUSH3 0x461BCD PUSH1 0xE5 SHL DUP2 MSTORE PUSH1 0x4 ADD PUSH2 0x2F2 SWAP1 PUSH2 0x11DC JUMP JUMPDEST PUSH2 0x3E8 DUP2 PUSH1 0x1 PUSH1 0x1 PUSH1 0x60 SHL SUB AND GT ISZERO PUSH2 0x405 JUMPI PUSH1 0x40 MLOAD PUSH3 0x461BCD PUSH1 0xE5 SHL DUP2 MSTORE PUSH1 0x20 PUSH1 0x4 DUP3 ADD MSTORE PUSH1 0x8 PUSH1 0x24 DUP3 ADD MSTORE PUSH8 0xE8DEDE40D0D2CED PUSH1 0xC3 SHL PUSH1 0x44 DUP3 ADD MSTORE PUSH1 0x64 ADD PUSH2 0x2F2 JUMP JUMPDEST PUSH1 0x1 SLOAD PUSH1 0x40 DUP1 MLOAD PUSH1 0x1 PUSH1 0x1 PUSH1 0x60 SHL SUB PUSH1 0x1 PUSH1 0xA0 SHL SWAP1 SWAP4 DIV DUP4 AND DUP2 MSTORE SWAP2 DUP4 AND PUSH1 0x20 DUP4 ADD MSTORE PUSH32 0x61FA658FB62B67640C114EA5CEBD972E116F9C06900A96894CD4F43A41E0A377 SWAP2 ADD PUSH1 0x40 MLOAD DUP1 SWAP2 SUB SWAP1 LOG1 PUSH1 0x1 DUP1 SLOAD PUSH1 0x1 PUSH1 0x1 PUSH1 0x60 SHL SUB SWAP1 SWAP3 AND PUSH1 0x1 PUSH1 0xA0 SHL MUL PUSH1 0x1 PUSH1 0x1 PUSH1 0xA0 SHL SUB SWAP1 SWAP3 AND SWAP2 SWAP1 SWAP2 OR SWAP1 SSTORE JUMP JUMPDEST PUSH1 0x1 SLOAD PUSH1 0x1 PUSH1 0x1 PUSH1 0xA0 SHL SUB AND CALLER EQ PUSH2 0x4A5 JUMPI PUSH1 0x40 MLOAD PUSH3 0x461BCD PUSH1 0xE5 SHL DUP2 MSTORE PUSH1 0x4 ADD PUSH2 0x2F2 SWAP1 PUSH2 0x11DC JUMP JUMPDEST PUSH1 0x1 PUSH1 0x1 PUSH1 0xA0 SHL SUB DUP2 AND PUSH2 0x4E4 JUMPI PUSH1 0x40 MLOAD PUSH3 0x461BCD PUSH1 0xE5 SHL DUP2 MSTORE PUSH1 0x4 ADD PUSH2 0x2F2 SWAP1 PUSH1 0x20 DUP1 DUP3 MSTORE PUSH1 0x4 SWAP1 DUP3 ADD MSTORE PUSH4 0x7A65726F PUSH1 0xE0 SHL PUSH1 0x40 DUP3 ADD MSTORE PUSH1 0x60 ADD SWAP1 JUMP JUMPDEST PUSH1 0x2 SLOAD PUSH1 0x40 MLOAD PUSH1 0x1 PUSH1 0x1 PUSH1 0xA0 SHL SUB DUP1 DUP5 AND SWAP3 AND SWAP1 PUSH32 0x16E2ACCAD9173ABFF57B295B56993EC5D86B3CBF791FEA02F02A6616463754EA SWAP1 PUSH0 SWAP1 LOG3 PUSH1 0x2 DUP1 SLOAD PUSH1 0x1 PUSH1 0x1 PUSH1 0xA0 SHL SUB NOT AND PUSH1 0x1 PUSH1 0x1 PUSH1 0xA0 SHL SUB SWAP3 SWAP1 SWAP3 AND SWAP2 SWAP1 SWAP2 OR SWAP1 SSTORE JUMP JUMPDEST PUSH0 SLOAD ISZERO PUSH2 0x57B JUMPI PUSH1 0x40 MLOAD PUSH3 0x461BCD PUSH1 0xE5 SHL DUP2 MSTORE PUSH1 0x20 PUSH1 0x4 DUP3 ADD MSTORE PUSH1 0xA PUSH1 0x24 DUP3 ADD MSTORE PUSH10 0x7265656E7472616E6379 PUSH1 0xB0 SHL PUSH1 0x44 DUP3 ADD MSTORE PUSH1 0x64 ADD PUSH2 0x2F2 JUMP JUMPDEST PUSH1 0x1 PUSH0 SWAP1 DUP2 SSTORE PUSH1 0x40 DUP1 MLOAD PUSH1 0x1 PUSH1 0x1 PUSH1 0xA0 SHL SUB DUP1 DUP8 AND PUSH1 0x20 DUP4 ADD MSTORE SWAP2 DUP2 ADD DUP6 SWAP1 MSTORE SWAP1 DUP4 AND PUSH1 0x60 DUP3 ADD MSTORE PUSH1 0x80 ADD PUSH1 0x40 DUP1 MLOAD PUSH1 0x1F NOT DUP2 DUP5 SUB ADD DUP2 MSTORE SWAP2 DUP2 MSTORE DUP2 MLOAD PUSH1 0x20 SWAP3 DUP4 ADD KECCAK256 PUSH0 DUP2 DUP2 MSTORE PUSH1 0x3 SWAP1 SWAP4 MSTORE SWAP2 KECCAK256 PUSH1 0x5 DUP2 ADD SLOAD SWAP2 SWAP3 POP SWAP1 PUSH1 0xFF AND PUSH2 0x60C JUMPI PUSH1 0x40 MLOAD PUSH3 0x461BCD PUSH1 0xE5 SHL DUP2 MSTORE PUSH1 0x20 PUSH1 0x4 DUP3 ADD MSTORE PUSH1 0x8 PUSH1 0x24 DUP3 ADD MSTORE PUSH8 0x696E616374697665 PUSH1 0xC0 SHL PUSH1 0x44 DUP3 ADD MSTORE PUSH1 0x64 ADD PUSH2 0x2F2 JUMP JUMPDEST PUSH1 0x5 DUP2 ADD DUP1 SLOAD PUSH1 0xFF NOT AND SWAP1 SSTORE PUSH1 0x4 DUP2 ADD SLOAD PUSH1 0x3 DUP3 ADD SLOAD PUSH1 0x1 PUSH1 0x1 PUSH1 0xA0 SHL SUB AND PUSH2 0x66F JUMPI DUP1 CALLVALUE EQ PUSH2 0x66A JUMPI PUSH1 0x40 MLOAD PUSH3 0x461BCD PUSH1 0xE5 SHL DUP2 MSTORE PUSH1 0x20 PUSH1 0x4 DUP3 ADD MSTORE PUSH1 0x9 PUSH1 0x24 DUP3 ADD MSTORE PUSH9 0x6261642076616C7565 PUSH1 0xB8 SHL PUSH1 0x44 DUP3 ADD MSTORE PUSH1 0x64 ADD PUSH2 0x2F2 JUMP JUMPDEST PUSH2 0x720 JUMP JUMPDEST PUSH1 0x3 DUP3 ADD SLOAD PUSH1 0x40 MLOAD PUSH4 0x23B872DD PUSH1 0xE0 SHL DUP2 MSTORE CALLER PUSH1 0x4 DUP3 ADD MSTORE ADDRESS PUSH1 0x24 DUP3 ADD MSTORE PUSH1 0x44 DUP2 ADD DUP4 SWAP1 MSTORE PUSH1 0x1 PUSH1 0x1 PUSH1 0xA0 SHL SUB SWAP1 SWAP2 AND SWAP1 PUSH4 0x23B872DD SWAP1 PUSH1 0x64 ADD PUSH1 0x20 PUSH1 0x40 MLOAD DUP1 DUP4 SUB DUP2 PUSH0 DUP8 GAS CALL ISZERO DUP1 ISZERO PUSH2 0x6C5 JUMPI RETURNDATASIZE PUSH0 DUP1 RETURNDATACOPY RETURNDATASIZE PUSH0 REVERT JUMPDEST POP POP POP POP PUSH1 0x40 MLOAD RETURNDATASIZE PUSH1 0x1F NOT PUSH1 0x1F DUP3 ADD AND DUP3 ADD DUP1 PUSH1 0x40 MSTORE POP DUP2 ADD SWAP1 PUSH2 0x6E9 SWAP2 SWAP1 PUSH2 0x11FF JUMP JUMPDEST PUSH2 0x720 JUMPI PUSH1 0x40 MLOAD PUSH3 0x461BCD PUSH1 0xE5 SHL DUP2 MSTORE PUSH1 0x20 PUSH1 0x4 DUP3 ADD MSTORE PUSH1 0x8 PUSH1 0x24 DUP3 ADD MSTORE PUSH8 0x1C185E4819985A5B PUSH1 0xC2 SHL PUSH1 0x44 DUP3 ADD MSTORE PUSH1 0x64 ADD PUSH2 0x2F2 JUMP JUMPDEST PUSH1 0x40 MLOAD PUSH4 0x152A902D PUSH1 0xE1 SHL DUP2 MSTORE PUSH1 0x4 DUP2 ADD DUP7 SWAP1 MSTORE PUSH1 0x24 DUP2 ADD DUP3 SWAP1 MSTORE PUSH0 SWAP1 DUP2 SWAP1 PUSH1 0x1 PUSH1 0x1 PUSH1 0xA0 SHL SUB DUP10 AND SWAP1 PUSH4 0x2A55205A SWAP1 PUSH1 0x44 ADD PUSH1 0x40 DUP1 MLOAD DUP1 DUP4 SUB DUP2 DUP7 GAS STATICCALL ISZERO DUP1 ISZERO PUSH2 0x76D JUMPI RETURNDATASIZE PUSH0 DUP1 RETURNDATACOPY RETURNDATASIZE PUSH0 REVERT JUMPDEST POP POP POP POP PUSH1 0x40 MLOAD RETURNDATASIZE PUSH1 0x1F NOT PUSH1 0x1F DUP3 ADD AND DUP3 ADD DUP1 PUSH1 0x40 MSTORE POP DUP2 ADD SWAP1 PUSH2 0x791 SWAP2 SWAP1 PUSH2 0x121E JUMP JUMPDEST PUSH1 0x1 SLOAD SWAP2 SWAP4 POP SWAP2 POP PUSH0 SWAP1 PUSH2 0x2710 SWAP1 PUSH2 0x7B9 SWAP1 PUSH1 0x1 PUSH1 0xA0 SHL SWAP1 DIV PUSH1 0x1 PUSH1 0x1 PUSH1 0x60 SHL SUB AND DUP7 PUSH2 0x125E JUMP JUMPDEST PUSH2 0x7C3 SWAP2 SWAP1 PUSH2 0x127B JUMP JUMPDEST SWAP1 POP PUSH0 DUP2 PUSH2 0x7D1 DUP5 DUP8 PUSH2 0x129A JUMP JUMPDEST PUSH2 0x7DB SWAP2 SWAP1 PUSH2 0x129A JUMP JUMPDEST PUSH1 0x3 DUP8 ADD SLOAD SWAP1 SWAP2 POP PUSH2 0x7F7 SWAP1 PUSH1 0x1 PUSH1 0x1 PUSH1 0xA0 SHL SUB AND DUP6 DUP6 PUSH2 0xF58 JUMP JUMPDEST PUSH1 0x3 DUP7 ADD SLOAD PUSH1 0x1 PUSH1 0x1 PUSH1 0xA0 SHL SUB AND PUSH2 0x872 JUMPI PUSH1 0x2 PUSH0 SWAP1 SLOAD SWAP1 PUSH2 0x100 EXP SWAP1 DIV PUSH1 0x1 PUSH1 0x1 PUSH1 0xA0 SHL SUB AND PUSH1 0x1 PUSH1 0x1 PUSH1 0xA0 SHL SUB AND PUSH4 0x42220F34 DUP4 PUSH1 0x40 MLOAD DUP3 PUSH4 0xFFFFFFFF AND PUSH1 0xE0 SHL DUP2 MSTORE PUSH1 0x4 ADD PUSH0 PUSH1 0x40 MLOAD DUP1 DUP4 SUB DUP2 DUP6 DUP9 DUP1 EXTCODESIZE ISZERO DUP1 ISZERO PUSH2 0x856 JUMPI PUSH0 DUP1 REVERT JUMPDEST POP GAS CALL ISZERO DUP1 ISZERO PUSH2 0x868 JUMPI RETURNDATASIZE PUSH0 DUP1 RETURNDATACOPY RETURNDATASIZE PUSH0 REVERT JUMPDEST POP POP POP POP POP PUSH2 0x98C JUMP JUMPDEST PUSH1 0x3 DUP7 ADD SLOAD PUSH1 0x2 SLOAD PUSH1 0x40 MLOAD PUSH4 0x95EA7B3 PUSH1 0xE0 SHL DUP2 MSTORE PUSH1 0x1 PUSH1 0x1 PUSH1 0xA0 SHL SUB SWAP2 DUP3 AND PUSH1 0x4 DUP3 ADD MSTORE PUSH1 0x24 DUP2 ADD DUP6 SWAP1 MSTORE SWAP2 AND SWAP1 PUSH4 0x95EA7B3 SWAP1 PUSH1 0x44 ADD PUSH1 0x20 PUSH1 0x40 MLOAD DUP1 DUP4 SUB DUP2 PUSH0 DUP8 GAS CALL ISZERO DUP1 ISZERO PUSH2 0x8C6 JUMPI RETURNDATASIZE PUSH0 DUP1 RETURNDATACOPY RETURNDATASIZE PUSH0 REVERT JUMPDEST POP POP POP POP PUSH1 0x40 MLOAD RETURNDATASIZE PUSH1 0x1F NOT PUSH1 0x1F DUP3 ADD AND DUP3 ADD DUP1 PUSH1 0x40 MSTORE POP DUP2 ADD SWAP1 PUSH2 0x8EA SWAP2 SWAP1 PUSH2 0x11FF JUMP JUMPDEST PUSH2 0x926 JUMPI PUSH1 0x40 MLOAD PUSH3 0x461BCD PUSH1 0xE5 SHL DUP2 MSTORE PUSH1 0x20 PUSH1 0x4 DUP3 ADD MSTORE PUSH1 0xD PUSH1 0x24 DUP3 ADD MSTORE PUSH13 0x185C1C1C9BDD99481D985D5B1D PUSH1 0x9A SHL PUSH1 0x44 DUP3 ADD MSTORE PUSH1 0x64 ADD PUSH2 0x2F2 JUMP JUMPDEST PUSH1 0x2 SLOAD PUSH1 0x3 DUP8 ADD SLOAD PUSH1 0x40 MLOAD PUSH4 0x19C5AEF5 PUSH1 0xE1 SHL DUP2 MSTORE PUSH1 0x1 PUSH1 0x1 PUSH1 0xA0 SHL SUB SWAP2 DUP3 AND PUSH1 0x4 DUP3 ADD MSTORE PUSH1 0x24 DUP2 ADD DUP6 SWAP1 MSTORE SWAP2 AND SWAP1 PUSH4 0x338B5DEA SWAP1 PUSH1 0x44 ADD PUSH0 PUSH1 0x40 MLOAD DUP1 DUP4 SUB DUP2 PUSH0 DUP8 DUP1 EXTCODESIZE ISZERO DUP1 ISZERO PUSH2 0x975 JUMPI PUSH0 DUP1 REVERT JUMPDEST POP GAS CALL ISZERO DUP1 ISZERO PUSH2 0x987 JUMPI RETURNDATASIZE PUSH0 DUP1 RETURNDATACOPY RETURNDATASIZE PUSH0 REVERT JUMPDEST POP POP POP POP JUMPDEST PUSH1 0x3 DUP7 ADD SLOAD PUSH1 0x2 DUP8 ADD SLOAD PUSH2 0x9AD SWAP2 PUSH1 0x1 PUSH1 0x1 PUSH1 0xA0 SHL SUB SWAP1 DUP2 AND SWAP2 AND DUP4 PUSH2 0xF58 JUMP JUMPDEST PUSH1 0x2 DUP7 ADD SLOAD PUSH1 0x40 MLOAD PUSH4 0x21421707 PUSH1 0xE1 SHL DUP2 MSTORE PUSH1 0x1 PUSH1 0x1 PUSH1 0xA0 SHL SUB SWAP2 DUP3 AND PUSH1 0x4 DUP3 ADD MSTORE CALLER PUSH1 0x24 DUP3 ADD MSTORE PUSH1 0x44 DUP2 ADD DUP12 SWAP1 MSTORE SWAP1 DUP12 AND SWAP1 PUSH4 0x42842E0E SWAP1 PUSH1 0x64 ADD PUSH0 PUSH1 0x40 MLOAD DUP1 DUP4 SUB DUP2 PUSH0 DUP8 DUP1 EXTCODESIZE ISZERO DUP1 ISZERO PUSH2 0xA00 JUMPI PUSH0 DUP1 REVERT JUMPDEST POP GAS CALL ISZERO DUP1 ISZERO PUSH2 0xA12 JUMPI RETURNDATASIZE PUSH0 DUP1 RETURNDATACOPY RETURNDATASIZE PUSH0 REVERT JUMPDEST POP POP POP POP PUSH1 0x2 DUP7 ADD SLOAD PUSH1 0x3 DUP8 ADD SLOAD PUSH1 0x40 DUP1 MLOAD CALLER DUP2 MSTORE PUSH1 0x1 PUSH1 0x1 PUSH1 0xA0 SHL SUB SWAP4 DUP5 AND PUSH1 0x20 DUP3 ADD MSTORE SWAP2 DUP4 AND SWAP1 DUP3 ADD MSTORE PUSH1 0x60 DUP2 ADD DUP8 SWAP1 MSTORE PUSH1 0x80 DUP2 ADD DUP5 SWAP1 MSTORE PUSH1 0xA0 DUP2 ADD DUP6 SWAP1 MSTORE DUP11 SWAP2 DUP13 AND SWAP1 PUSH32 0x209076F781EEF9A38CE7076291C49FF03033220379D6A82839F4E22BD6E0C2FC SWAP1 PUSH1 0xC0 ADD PUSH1 0x40 MLOAD DUP1 SWAP2 SUB SWAP1 LOG3 POP POP PUSH0 DUP1 SSTORE POP POP POP POP POP POP POP POP JUMP JUMPDEST PUSH1 0x40 MLOAD PUSH4 0x31A9108F PUSH1 0xE1 SHL DUP2 MSTORE PUSH1 0x4 DUP2 ADD DUP5 SWAP1 MSTORE CALLER SWAP1 PUSH1 0x1 PUSH1 0x1 PUSH1 0xA0 SHL SUB DUP7 AND SWAP1 PUSH4 0x6352211E SWAP1 PUSH1 0x24 ADD PUSH1 0x20 PUSH1 0x40 MLOAD DUP1 DUP4 SUB DUP2 DUP7 GAS STATICCALL ISZERO DUP1 ISZERO PUSH2 0xAD9 JUMPI RETURNDATASIZE PUSH0 DUP1 RETURNDATACOPY RETURNDATASIZE PUSH0 REVERT JUMPDEST POP POP POP POP PUSH1 0x40 MLOAD RETURNDATASIZE PUSH1 0x1F NOT PUSH1 0x1F DUP3 ADD AND DUP3 ADD DUP1 PUSH1 0x40 MSTORE POP DUP2 ADD SWAP1 PUSH2 0xAFD SWAP2 SWAP1 PUSH2 0x12AD JUMP JUMPDEST PUSH1 0x1 PUSH1 0x1 PUSH1 0xA0 SHL SUB AND EQ PUSH2 0xB23 JUMPI PUSH1 0x40 MLOAD PUSH3 0x461BCD PUSH1 0xE5 SHL DUP2 MSTORE PUSH1 0x4 ADD PUSH2 0x2F2 SWAP1 PUSH2 0x11DC JUMP JUMPDEST PUSH0 DUP2 GT PUSH2 0xB5F JUMPI PUSH1 0x40 MLOAD PUSH3 0x461BCD PUSH1 0xE5 SHL DUP2 MSTORE PUSH1 0x20 PUSH1 0x4 DUP3 ADD MSTORE PUSH1 0xA PUSH1 0x24 DUP3 ADD MSTORE PUSH10 0x7A65726F207072696365 PUSH1 0xB0 SHL PUSH1 0x44 DUP3 ADD MSTORE PUSH1 0x64 ADD PUSH2 0x2F2 JUMP JUMPDEST PUSH1 0x1 PUSH1 0x1 PUSH1 0xA0 SHL SUB DUP3 AND ISZERO DUP1 PUSH2 0xBA6 JUMPI POP PUSH32 0x0 PUSH1 0x1 PUSH1 0x1 PUSH1 0xA0 SHL SUB AND DUP3 PUSH1 0x1 PUSH1 0x1 PUSH1 0xA0 SHL SUB AND EQ JUMPDEST PUSH2 0xBE9 JUMPI PUSH1 0x40 MLOAD PUSH3 0x461BCD PUSH1 0xE5 SHL DUP2 MSTORE PUSH1 0x20 PUSH1 0x4 DUP3 ADD MSTORE PUSH1 0x14 PUSH1 0x24 DUP3 ADD MSTORE PUSH20 0x756E737570706F727465642063757272656E6379 PUSH1 0x60 SHL PUSH1 0x44 DUP3 ADD MSTORE PUSH1 0x64 ADD PUSH2 0x2F2 JUMP JUMPDEST PUSH1 0x40 MLOAD PUSH4 0x20604BF PUSH1 0xE2 SHL DUP2 MSTORE PUSH1 0x4 DUP2 ADD DUP5 SWAP1 MSTORE ADDRESS SWAP1 PUSH1 0x1 PUSH1 0x1 PUSH1 0xA0 SHL SUB DUP7 AND SWAP1 PUSH4 0x81812FC SWAP1 PUSH1 0x24 ADD PUSH1 0x20 PUSH1 0x40 MLOAD DUP1 DUP4 SUB DUP2 DUP7 GAS STATICCALL ISZERO DUP1 ISZERO PUSH2 0xC2E JUMPI RETURNDATASIZE PUSH0 DUP1 RETURNDATACOPY RETURNDATASIZE PUSH0 REVERT JUMPDEST POP POP POP POP PUSH1 0x40 MLOAD RETURNDATASIZE PUSH1 0x1F NOT PUSH1 0x1F DUP3 ADD AND DUP3 ADD DUP1 PUSH1 0x40 MSTORE POP DUP2 ADD SWAP1 PUSH2 0xC52 SWAP2 SWAP1 PUSH2 0x12AD JUMP JUMPDEST PUSH1 0x1 PUSH1 0x1 PUSH1 0xA0 SHL SUB AND EQ DUP1 PUSH2 0xCCE JUMPI POP PUSH1 0x40 MLOAD PUSH4 0xE985E9C5 PUSH1 0xE0 SHL DUP2 MSTORE CALLER PUSH1 0x4 DUP3 ADD MSTORE ADDRESS PUSH1 0x24 DUP3 ADD MSTORE PUSH1 0x1 PUSH1 0x1 PUSH1 0xA0 SHL SUB DUP6 AND SWAP1 PUSH4 0xE985E9C5 SWAP1 PUSH1 0x44 ADD PUSH1 0x20 PUSH1 0x40 MLOAD DUP1 DUP4 SUB DUP2 DUP7 GAS STATICCALL ISZERO DUP1 ISZERO PUSH2 0xCAA JUMPI RETURNDATASIZE PUSH0 DUP1 RETURNDATACOPY RETURNDATASIZE PUSH0 REVERT JUMPDEST POP POP POP POP PUSH1 0x40 MLOAD RETURNDATASIZE PUSH1 0x1F NOT PUSH1 0x1F DUP3 ADD AND DUP3 ADD DUP1 PUSH1 0x40 MSTORE POP DUP2 ADD SWAP1 PUSH2 0xCCE SWAP2 SWAP1 PUSH2 0x11FF JUMP JUMPDEST PUSH2 0xD10 JUMPI PUSH1 0x40 MLOAD PUSH3 0x461BCD PUSH1 0xE5 SHL DUP2 MSTORE PUSH1 0x20 PUSH1 0x4 DUP3 ADD MSTORE PUSH1 0x13 PUSH1 0x24 DUP3 ADD MSTORE PUSH19 0x617070726F7665206D61726B6574706C616365 PUSH1 0x68 SHL PUSH1 0x44 DUP3 ADD MSTORE PUSH1 0x64 ADD PUSH2 0x2F2 JUMP JUMPDEST PUSH1 0x40 DUP1 MLOAD PUSH1 0x1 PUSH1 0x1 PUSH1 0xA0 SHL SUB DUP7 AND PUSH1 0x20 DUP3 ADD MSTORE SWAP1 DUP2 ADD DUP5 SWAP1 MSTORE CALLER PUSH1 0x60 DUP3 ADD MSTORE PUSH0 SWAP1 PUSH1 0x80 ADD PUSH1 0x40 DUP1 MLOAD PUSH1 0x1F NOT DUP2 DUP5 SUB ADD DUP2 MSTORE DUP3 DUP3 MSTORE DUP1 MLOAD PUSH1 0x20 SWAP2 DUP3 ADD KECCAK256 PUSH1 0xC0 DUP5 ADD DUP4 MSTORE PUSH1 0x1 PUSH1 0x1 PUSH1 0xA0 SHL SUB DUP1 DUP11 AND DUP1 DUP7 MSTORE DUP6 DUP5 ADD DUP11 DUP2 MSTORE CALLER DUP8 DUP8 ADD DUP2 DUP2 MSTORE DUP12 DUP6 AND PUSH1 0x60 DUP11 ADD SWAP1 DUP2 MSTORE PUSH1 0x80 DUP11 ADD DUP13 DUP2 MSTORE PUSH1 0x1 PUSH1 0xA0 DUP13 ADD DUP2 DUP2 MSTORE PUSH0 DUP11 DUP2 MSTORE PUSH1 0x3 SWAP12 DUP13 SWAP1 MSTORE DUP13 SWAP1 KECCAK256 SWAP13 MLOAD DUP14 SLOAD SWAP1 DUP11 AND PUSH1 0x1 PUSH1 0x1 PUSH1 0xA0 SHL SUB NOT SWAP2 DUP3 AND OR DUP15 SSTORE SWAP7 MLOAD SWAP2 DUP14 ADD SWAP2 SWAP1 SWAP2 SSTORE SWAP3 MLOAD PUSH1 0x2 DUP13 ADD DUP1 SLOAD SWAP2 DUP10 AND SWAP2 DUP8 AND SWAP2 SWAP1 SWAP2 OR SWAP1 SSTORE SWAP1 MLOAD SWAP8 DUP11 ADD DUP1 SLOAD SWAP9 SWAP1 SWAP7 AND SWAP8 SWAP1 SWAP4 AND SWAP7 SWAP1 SWAP7 OR SWAP1 SWAP4 SSTORE MLOAD PUSH1 0x4 DUP8 ADD SSTORE SWAP3 MLOAD PUSH1 0x5 SWAP1 SWAP6 ADD DUP1 SLOAD SWAP6 ISZERO ISZERO PUSH1 0xFF NOT SWAP1 SWAP7 AND SWAP6 SWAP1 SWAP6 OR SWAP1 SWAP5 SSTORE SWAP2 MLOAD SWAP2 SWAP4 POP DUP7 SWAP3 SWAP1 SWAP2 PUSH32 0x462AE7FE8EBE6DCA41694814C3BEF6023E5166A98D66314D9BEDEF1A9E5A561A SWAP2 PUSH2 0xE53 SWAP2 DUP9 SWAP1 DUP9 SWAP1 PUSH1 0x1 PUSH1 0x1 PUSH1 0xA0 SHL SUB SWAP4 DUP5 AND DUP2 MSTORE SWAP2 SWAP1 SWAP3 AND PUSH1 0x20 DUP3 ADD MSTORE PUSH1 0x40 DUP2 ADD SWAP2 SWAP1 SWAP2 MSTORE PUSH1 0x60 ADD SWAP1 JUMP JUMPDEST PUSH1 0x40 MLOAD DUP1 SWAP2 SUB SWAP1 LOG3 POP POP POP POP POP JUMP JUMPDEST PUSH1 0x40 DUP1 MLOAD PUSH1 0x1 PUSH1 0x1 PUSH1 0xA0 SHL SUB DUP5 AND PUSH1 0x20 DUP3 ADD MSTORE SWAP1 DUP2 ADD DUP3 SWAP1 MSTORE CALLER PUSH1 0x60 DUP3 ADD MSTORE PUSH0 SWAP1 PUSH1 0x80 ADD PUSH1 0x40 DUP1 MLOAD PUSH1 0x1F NOT DUP2 DUP5 SUB ADD DUP2 MSTORE SWAP2 DUP2 MSTORE DUP2 MLOAD PUSH1 0x20 SWAP3 DUP4 ADD KECCAK256 PUSH0 DUP2 DUP2 MSTORE PUSH1 0x3 SWAP1 SWAP4 MSTORE SWAP2 KECCAK256 PUSH1 0x5 DUP2 ADD SLOAD SWAP2 SWAP3 POP SWAP1 PUSH1 0xFF AND DUP1 ISZERO PUSH2 0xECD JUMPI POP PUSH1 0x2 DUP2 ADD SLOAD PUSH1 0x1 PUSH1 0x1 PUSH1 0xA0 SHL SUB AND CALLER EQ JUMPDEST PUSH2 0xF06 JUMPI PUSH1 0x40 MLOAD PUSH3 0x461BCD PUSH1 0xE5 SHL DUP2 MSTORE PUSH1 0x20 PUSH1 0x4 DUP3 ADD MSTORE PUSH1 0xA PUSH1 0x24 DUP3 ADD MSTORE PUSH10 0x6E6F206C697374696E67 PUSH1 0xB0 SHL PUSH1 0x44 DUP3 ADD MSTORE PUSH1 0x64 ADD PUSH2 0x2F2 JUMP JUMPDEST PUSH1 0x5 DUP2 ADD DUP1 SLOAD PUSH1 0xFF NOT AND SWAP1 SSTORE PUSH1 0x40 MLOAD CALLER DUP2 MSTORE DUP4 SWAP1 PUSH1 0x1 PUSH1 0x1 PUSH1 0xA0 SHL SUB DUP7 AND SWAP1 PUSH32 0x9DB7BA4A2920E0C8066731BB48BCA5EE2A652267B7E73D0502962C29F1E41EAD SWAP1 PUSH1 0x20 ADD PUSH1 0x40 MLOAD DUP1 SWAP2 SUB SWAP1 LOG3 POP POP POP POP JUMP JUMPDEST DUP1 PUSH0 SUB PUSH2 0xF64 JUMPI POP POP POP JUMP JUMPDEST PUSH1 0x1 PUSH1 0x1 PUSH1 0xA0 SHL SUB DUP4 AND PUSH2 0x1006 JUMPI PUSH0 DUP3 PUSH1 0x1 PUSH1 0x1 PUSH1 0xA0 SHL SUB AND DUP3 PUSH1 0x40 MLOAD PUSH0 PUSH1 0x40 MLOAD DUP1 DUP4 SUB DUP2 DUP6 DUP8 GAS CALL SWAP3 POP POP POP RETURNDATASIZE DUP1 PUSH0 DUP2 EQ PUSH2 0xFBB JUMPI PUSH1 0x40 MLOAD SWAP2 POP PUSH1 0x1F NOT PUSH1 0x3F RETURNDATASIZE ADD AND DUP3 ADD PUSH1 0x40 MSTORE RETURNDATASIZE DUP3 MSTORE RETURNDATASIZE PUSH0 PUSH1 0x20 DUP5 ADD RETURNDATACOPY PUSH2 0xFC0 JUMP JUMPDEST PUSH1 0x60 SWAP2 POP JUMPDEST POP POP SWAP1 POP DUP1 PUSH2 0x1000 JUMPI PUSH1 0x40 MLOAD PUSH3 0x461BCD PUSH1 0xE5 SHL DUP2 MSTORE PUSH1 0x20 PUSH1 0x4 DUP3 ADD MSTORE PUSH1 0xC PUSH1 0x24 DUP3 ADD MSTORE PUSH12 0x1C185E48189B988819985A5B PUSH1 0xA2 SHL PUSH1 0x44 DUP3 ADD MSTORE PUSH1 0x64 ADD PUSH2 0x2F2 JUMP JUMPDEST POP POP POP POP JUMP JUMPDEST PUSH1 0x40 MLOAD PUSH4 0xA9059CBB PUSH1 0xE0 SHL DUP2 MSTORE PUSH1 0x1 PUSH1 0x1 PUSH1 0xA0 SHL SUB DUP4 DUP2 AND PUSH1 0x4 DUP4 ADD MSTORE PUSH1 0x24 DUP3 ADD DUP4 SWAP1 MSTORE DUP5 AND SWAP1 PUSH4 0xA9059CBB SWAP1 PUSH1 0x44 ADD PUSH1 0x20 PUSH1 0x40 MLOAD DUP1 DUP4 SUB DUP2 PUSH0 DUP8 GAS CALL ISZERO DUP1 ISZERO PUSH2 0x1052 JUMPI RETURNDATASIZE PUSH0 DUP1 RETURNDATACOPY RETURNDATASIZE PUSH0 REVERT JUMPDEST POP POP POP POP PUSH1 0x40 MLOAD RETURNDATASIZE PUSH1 0x1F NOT PUSH1 0x1F DUP3 ADD AND DUP3 ADD DUP1 PUSH1 0x40 MSTORE POP DUP2 ADD SWAP1 PUSH2 0x1076 SWAP2 SWAP1 PUSH2 0x11FF JUMP JUMPDEST PUSH2 0x10B3 JUMPI PUSH1 0x40 MLOAD PUSH3 0x461BCD PUSH1 0xE5 SHL DUP2 MSTORE PUSH1 0x20 PUSH1 0x4 DUP3 ADD MSTORE PUSH1 0xE PUSH1 0x24 DUP3 ADD MSTORE PUSH14 0x1C185E48195C98CC8C0819985A5B PUSH1 0x92 SHL PUSH1 0x44 DUP3 ADD MSTORE PUSH1 0x64 ADD PUSH2 0x2F2 JUMP JUMPDEST POP POP POP JUMP JUMPDEST PUSH1 0x1 PUSH1 0x1 PUSH1 0xA0 SHL SUB DUP2 AND DUP2 EQ PUSH2 0x10CC JUMPI PUSH0 DUP1 REVERT JUMPDEST POP JUMP JUMPDEST PUSH0 PUSH1 0x20 DUP3 DUP5 SUB SLT ISZERO PUSH2 0x10DF JUMPI PUSH0 DUP1 REVERT JUMPDEST DUP2 CALLDATALOAD PUSH2 0x10EA DUP2 PUSH2 0x10B8 JUMP JUMPDEST SWAP4 SWAP3 POP POP POP JUMP JUMPDEST PUSH0 PUSH1 0x20 DUP3 DUP5 SUB SLT ISZERO PUSH2 0x1101 JUMPI PUSH0 DUP1 REVERT JUMPDEST DUP2 CALLDATALOAD PUSH1 0x1 PUSH1 0x1 PUSH1 0x60 SHL SUB DUP2 AND DUP2 EQ PUSH2 0x10EA JUMPI PUSH0 DUP1 REVERT JUMPDEST PUSH0 PUSH1 0x20 DUP3 DUP5 SUB SLT ISZERO PUSH2 0x1127 JUMPI PUSH0 DUP1 REVERT JUMPDEST POP CALLDATALOAD SWAP2 SWAP1 POP JUMP JUMPDEST PUSH0 DUP1 PUSH0 PUSH1 0x60 DUP5 DUP7 SUB SLT ISZERO PUSH2 0x1140 JUMPI PUSH0 DUP1 REVERT JUMPDEST DUP4 CALLDATALOAD PUSH2 0x114B DUP2 PUSH2 0x10B8 JUMP JUMPDEST SWAP3 POP PUSH1 0x20 DUP5 ADD CALLDATALOAD SWAP2 POP PUSH1 0x40 DUP5 ADD CALLDATALOAD PUSH2 0x1162 DUP2 PUSH2 0x10B8 JUMP JUMPDEST DUP1 SWAP2 POP POP SWAP3 POP SWAP3 POP SWAP3 JUMP JUMPDEST PUSH0 DUP1 PUSH0 DUP1 PUSH1 0x80 DUP6 DUP8 SUB SLT ISZERO PUSH2 0x1180 JUMPI PUSH0 DUP1 REVERT JUMPDEST DUP5 CALLDATALOAD PUSH2 0x118B DUP2 PUSH2 0x10B8 JUMP JUMPDEST SWAP4 POP PUSH1 0x20 DUP6 ADD CALLDATALOAD SWAP3 POP PUSH1 0x40 DUP6 ADD CALLDATALOAD PUSH2 0x11A2 DUP2 PUSH2 0x10B8 JUMP JUMPDEST SWAP4 SWAP7 SWAP3 SWAP6 POP SWAP3 SWAP4 PUSH1 0x60 ADD CALLDATALOAD SWAP3 POP POP JUMP JUMPDEST PUSH0 DUP1 PUSH1 0x40 DUP4 DUP6 SUB SLT ISZERO PUSH2 0x11C3 JUMPI PUSH0 DUP1 REVERT JUMPDEST DUP3 CALLDATALOAD PUSH2 0x11CE DUP2 PUSH2 0x10B8 JUMP JUMPDEST SWAP5 PUSH1 0x20 SWAP4 SWAP1 SWAP4 ADD CALLDATALOAD SWAP4 POP POP POP JUMP JUMPDEST PUSH1 0x20 DUP1 DUP3 MSTORE PUSH1 0x9 SWAP1 DUP3 ADD MSTORE PUSH9 0x3737BA1037BBB732B9 PUSH1 0xB9 SHL PUSH1 0x40 DUP3 ADD MSTORE PUSH1 0x60 ADD SWAP1 JUMP JUMPDEST PUSH0 PUSH1 0x20 DUP3 DUP5 SUB SLT ISZERO PUSH2 0x120F JUMPI PUSH0 DUP1 REVERT JUMPDEST DUP2 MLOAD DUP1 ISZERO ISZERO DUP2 EQ PUSH2 0x10EA JUMPI PUSH0 DUP1 REVERT JUMPDEST PUSH0 DUP1 PUSH1 0x40 DUP4 DUP6 SUB SLT ISZERO PUSH2 0x122F JUMPI PUSH0 DUP1 REVERT JUMPDEST DUP3 MLOAD PUSH2 0x123A DUP2 PUSH2 0x10B8 JUMP JUMPDEST PUSH1 0x20 SWAP4 SWAP1 SWAP4 ADD MLOAD SWAP3 SWAP5 SWAP3 SWAP4 POP POP POP JUMP JUMPDEST PUSH4 0x4E487B71 PUSH1 0xE0 SHL PUSH0 MSTORE PUSH1 0x11 PUSH1 0x4 MSTORE PUSH1 0x24 PUSH0 REVERT JUMPDEST DUP1 DUP3 MUL DUP2 ISZERO DUP3 DUP3 DIV DUP5 EQ OR PUSH2 0x1275 JUMPI PUSH2 0x1275 PUSH2 0x124A JUMP JUMPDEST SWAP3 SWAP2 POP POP JUMP JUMPDEST PUSH0 DUP3 PUSH2 0x1295 JUMPI PUSH4 0x4E487B71 PUSH1 0xE0 SHL PUSH0 MSTORE PUSH1 0x12 PUSH1 0x4 MSTORE PUSH1 0x24 PUSH0 REVERT JUMPDEST POP DIV SWAP1 JUMP JUMPDEST DUP2 DUP2 SUB DUP2 DUP2 GT ISZERO PUSH2 0x1275 JUMPI PUSH2 0x1275 PUSH2 0x124A JUMP JUMPDEST PUSH0 PUSH1 0x20 DUP3 DUP5 SUB SLT ISZERO PUSH2 0x12BD JUMPI PUSH0 DUP1 REVERT JUMPDEST DUP2 MLOAD PUSH2 0x10EA DUP2 PUSH2 0x10B8 JUMP INVALID LOG2 PUSH5 0x6970667358 0x22 SLT KECCAK256 STATICCALL ISZERO GAS 0x25 0xC3 DUP16 PUSH29 0xAB312D9DE454E009E834E6BA2A941CB9C8439576FF83CECF9A64736F6C PUSH4 0x43000818 STOP CALLER "},"methodIdentifiers":{"USDT()":"c54e44eb","buy(address,uint256,address)":"db61c76e","delist(address,uint256)":"f074258e","list(address,uint256,address,uint256)":"ea8cdb1f","listings(bytes32)":"c18b8db4","owner()":"8da5cb5b","platformFeeBps()":"22dcd13e","setOwner(address)":"13af4035","setPlatformFeeBps(uint96)":"60b2cf10","setVault(address)":"6817031b","vault()":"fbfa77cf"}}}}}