{"project/src/LiquidityVault.sol":{"LiquidityVault":{"abi":[{"inputs":[{"internalType":"address","name":"_gad","type":"address"},{"internalType":"address","name":"_usdt","type":"address"},{"internalType":"address","name":"_wbnb","type":"address"},{"internalType":"address","name":"_router","type":"address"},{"internalType":"address","name":"_owner","type":"address"},{"internalType":"address","name":"_lpReceiver","type":"address"}],"stateMutability":"nonpayable","type":"constructor"},{"anonymous":false,"inputs":[{"indexed":false,"internalType":"uint256","name":"gadIn","type":"uint256"},{"indexed":false,"internalType":"uint256","name":"bnbIn","type":"uint256"},{"indexed":false,"internalType":"uint256","name":"lpOut","type":"uint256"}],"name":"AddLiquidityGadBnb","type":"event"},{"anonymous":false,"inputs":[{"indexed":false,"internalType":"uint256","name":"gadIn","type":"uint256"},{"indexed":false,"internalType":"uint256","name":"usdtIn","type":"uint256"},{"indexed":false,"internalType":"uint256","name":"lpOut","type":"uint256"}],"name":"AddLiquidityGadUsdt","type":"event"},{"anonymous":false,"inputs":[{"indexed":true,"internalType":"address","name":"from","type":"address"},{"indexed":false,"internalType":"uint256","name":"amount","type":"uint256"}],"name":"DepositBNB","type":"event"},{"anonymous":false,"inputs":[{"indexed":true,"internalType":"address","name":"token","type":"address"},{"indexed":true,"internalType":"address","name":"from","type":"address"},{"indexed":false,"internalType":"uint256","name":"amount","type":"uint256"}],"name":"DepositToken","type":"event"},{"anonymous":false,"inputs":[{"indexed":true,"internalType":"address","name":"depositor","type":"address"},{"indexed":false,"internalType":"bool","name":"allowed","type":"bool"}],"name":"DepositorAllowed","type":"event"},{"anonymous":false,"inputs":[{"indexed":true,"internalType":"address","name":"oldReceiver","type":"address"},{"indexed":true,"internalType":"address","name":"newReceiver","type":"address"}],"name":"LpReceiverChanged","type":"event"},{"anonymous":false,"inputs":[{"indexed":true,"internalType":"address","name":"oldOwner","type":"address"},{"indexed":true,"internalType":"address","name":"newOwner","type":"address"}],"name":"OwnerChanged","type":"event"},{"inputs":[],"name":"GAD","outputs":[{"internalType":"address","name":"","type":"address"}],"stateMutability":"view","type":"function"},{"inputs":[],"name":"ROUTER","outputs":[{"internalType":"contract IPancakeRouterV2","name":"","type":"address"}],"stateMutability":"view","type":"function"},{"inputs":[],"name":"USDT","outputs":[{"internalType":"address","name":"","type":"address"}],"stateMutability":"view","type":"function"},{"inputs":[],"name":"WBNB","outputs":[{"internalType":"address","name":"","type":"address"}],"stateMutability":"view","type":"function"},{"inputs":[{"internalType":"uint256","name":"amountGadDesired","type":"uint256"},{"internalType":"uint256","name":"amountGadMin","type":"uint256"},{"internalType":"uint256","name":"amountBnbMin","type":"uint256"},{"internalType":"uint256","name":"deadline","type":"uint256"}],"name":"addLiquidityGadBnb","outputs":[{"internalType":"uint256","name":"aGAD","type":"uint256"},{"internalType":"uint256","name":"aBNB","type":"uint256"},{"internalType":"uint256","name":"lp","type":"uint256"}],"stateMutability":"nonpayable","type":"function"},{"inputs":[{"internalType":"uint256","name":"amountGadDesired","type":"uint256"},{"internalType":"uint256","name":"amountUsdtDesired","type":"uint256"},{"internalType":"uint256","name":"amountGadMin","type":"uint256"},{"internalType":"uint256","name":"amountUsdtMin","type":"uint256"},{"internalType":"uint256","name":"deadline","type":"uint256"}],"name":"addLiquidityGadUsdt","outputs":[{"internalType":"uint256","name":"aGAD","type":"uint256"},{"internalType":"uint256","name":"aUSDT","type":"uint256"},{"internalType":"uint256","name":"lp","type":"uint256"}],"stateMutability":"nonpayable","type":"function"},{"inputs":[{"internalType":"address","name":"","type":"address"}],"name":"allowedDepositors","outputs":[{"internalType":"bool","name":"","type":"bool"}],"stateMutability":"view","type":"function"},{"inputs":[],"name":"bnbBalance","outputs":[{"internalType":"uint256","name":"","type":"uint256"}],"stateMutability":"view","type":"function"},{"inputs":[],"name":"depositBNB","outputs":[],"stateMutability":"payable","type":"function"},{"inputs":[{"internalType":"address","name":"token","type":"address"},{"internalType":"uint256","name":"amount","type":"uint256"}],"name":"depositToken","outputs":[],"stateMutability":"nonpayable","type":"function"},{"inputs":[],"name":"gadBalance","outputs":[{"internalType":"uint256","name":"","type":"uint256"}],"stateMutability":"view","type":"function"},{"inputs":[],"name":"lpReceiver","outputs":[{"internalType":"address","name":"","type":"address"}],"stateMutability":"view","type":"function"},{"inputs":[],"name":"owner","outputs":[{"internalType":"address","name":"","type":"address"}],"stateMutability":"view","type":"function"},{"inputs":[{"internalType":"address","name":"depositor","type":"address"},{"internalType":"bool","name":"allowed","type":"bool"}],"name":"setDepositor","outputs":[],"stateMutability":"nonpayable","type":"function"},{"inputs":[{"internalType":"address","name":"newReceiver","type":"address"}],"name":"setLpReceiver","outputs":[],"stateMutability":"nonpayable","type":"function"},{"inputs":[{"internalType":"address","name":"newOwner","type":"address"}],"name":"setOwner","outputs":[],"stateMutability":"nonpayable","type":"function"},{"inputs":[],"name":"usdtBalance","outputs":[{"internalType":"uint256","name":"","type":"uint256"}],"stateMutability":"view","type":"function"},{"stateMutability":"payable","type":"receive"}],"evm":{"bytecode":{"linkReferences":{},"object":"61010060405234801562000011575f80fd5b50604051620015c6380380620015c683398101604081905262000034916200017c565b6001600160a01b038616158015906200005557506001600160a01b03851615155b80156200006a57506001600160a01b03841615155b80156200007f57506001600160a01b03831615155b620000bd5760405162461bcd60e51b81526020600482015260096024820152683d32b9379030b2323960b91b60448201526064015b60405180910390fd5b6001600160a01b03821615801590620000de57506001600160a01b03811615155b620001195760405162461bcd60e51b815260206004820152600a6024820152693d32b9379030b236b4b760b11b6044820152606401620000b4565b6001600160a01b0395861660805293851660a05291841660c052831660e0525f80549184166001600160a01b031992831617905560018054929093169116179055620001f9565b80516001600160a01b038116811462000177575f80fd5b919050565b5f805f805f8060c0878903121562000192575f80fd5b6200019d8762000160565b9550620001ad6020880162000160565b9450620001bd6040880162000160565b9350620001cd6060880162000160565b9250620001dd6080880162000160565b9150620001ed60a0880162000160565b90509295509295509295565b60805160a05160c05160e0516112dc620002ea5f395f818161022601528181610585015281816105d00152818161061b015281816106660152818161071f015281816107fb01528181610846015281816109040152818161094f015281816109da0152610ab801525f61034201525f8181610394015281816105af01528181610645015281816106cc0152818161082501528181610b540152610db601525f81816102f1015281816103df01528181610564015281816105fa015281816106a4015281816107da015281816108e30152818161092e0152818161098e01528181610a970152610b8f01526112dc5ff3fe6080604052600436106100fd575f3560e01c8063482edb07116100925780638da5cb5b116100625780638da5cb5b146103135780638dd9500214610331578063ad8f346714610364578063c54e44eb14610383578063d013cbe2146103b6575f80fd5b8063482edb071461026f578063483c2ef0146102835780636f860d74146102c157806381f5aefc146102e0575f80fd5b806326b0064e116100cd57806326b0064e146101f657806332fe7b2614610215578063338b5dea1461024857806342220f3414610267575f80fd5b80630bdcaadf1461013d57806313af40351461016457806318444401146101855780631f0c57fc146101bf575f80fd5b366101395760405134815233907f87cb53a38fc102d7b0db87aed7b34c801c2994738947c12489e9bcbc3cd3ef299060200160405180910390a2005b5f80fd5b348015610148575f80fd5b506101516103c8565b6040519081526020015b60405180910390f35b34801561016f575f80fd5b5061018361017e366004611115565b610456565b005b348015610190575f80fd5b506101a461019f366004611135565b610507565b6040805193845260208401929092529082015260600161015b565b3480156101ca575f80fd5b506001546101de906001600160a01b031681565b6040516001600160a01b03909116815260200161015b565b348015610201575f80fd5b506101a461021036600461116c565b610876565b348015610220575f80fd5b506101de7f000000000000000000000000000000000000000000000000000000000000000081565b348015610253575f80fd5b5061018361026236600461119b565b610ae7565b610183610cfd565b34801561027a575f80fd5b50610151610d9f565b34801561028e575f80fd5b506102b161029d366004611115565b60026020525f908152604090205460ff1681565b604051901515815260200161015b565b3480156102cc575f80fd5b506101836102db3660046111d3565b610ded565b3480156102eb575f80fd5b506101de7f000000000000000000000000000000000000000000000000000000000000000081565b34801561031e575f80fd5b505f546101de906001600160a01b031681565b34801561033c575f80fd5b506101de7f000000000000000000000000000000000000000000000000000000000000000081565b34801561036f575f80fd5b5061018361037e366004611115565b610e74565b34801561038e575f80fd5b506101de7f000000000000000000000000000000000000000000000000000000000000000081565b3480156103c1575f80fd5b5047610151565b6040516370a0823160e01b81523060048201525f907f00000000000000000000000000000000000000000000000000000000000000006001600160a01b0316906370a08231906024015b602060405180830381865afa15801561042d573d5f803e3d5ffd5b505050506040513d601f19601f820116820180604052508101906104519190611208565b905090565b5f546001600160a01b031633146104885760405162461bcd60e51b815260040161047f9061121f565b60405180910390fd5b6001600160a01b0381166104ae5760405162461bcd60e51b815260040161047f90611242565b5f80546040516001600160a01b03808516939216917fb532073b38c83145e3e5135377a08bf9aab55bc0fd7c1179cd4fb995d2a5159c91a35f80546001600160a01b0319166001600160a01b0392909216919091179055565b5f8054819081906001600160a01b031633146105355760405162461bcd60e51b815260040161047f9061121f565b5f8811801561054357505f87115b61055f5760405162461bcd60e51b815260040161047f90611242565b6105aa7f00000000000000000000000000000000000000000000000000000000000000007f00000000000000000000000000000000000000000000000000000000000000005f610f1e565b6105f57f00000000000000000000000000000000000000000000000000000000000000007f00000000000000000000000000000000000000000000000000000000000000005f610f1e565b6106407f00000000000000000000000000000000000000000000000000000000000000007f00000000000000000000000000000000000000000000000000000000000000008a610f1e565b61068b7f00000000000000000000000000000000000000000000000000000000000000007f000000000000000000000000000000000000000000000000000000000000000089610f1e565b60015460405162e8e33760e81b81526001600160a01b037f0000000000000000000000000000000000000000000000000000000000000000811660048301527f000000000000000000000000000000000000000000000000000000000000000081166024830152604482018b9052606482018a90526084820189905260a4820188905291821660c482015260e481018690527f00000000000000000000000000000000000000000000000000000000000000009091169063e8e3370090610104016060604051808303815f875af1158015610768573d5f803e3d5ffd5b505050506040513d601f19601f8201168201806040525081019061078c9190611260565b604080518481526020810184905290810182905292955090935091507fb367b4f9087a7460631e6253ddabf2c09ad7647f151c3f84873e7c0fe429283e9060600160405180910390a16108207f00000000000000000000000000000000000000000000000000000000000000007f00000000000000000000000000000000000000000000000000000000000000005f610f1e565b61086b7f00000000000000000000000000000000000000000000000000000000000000007f00000000000000000000000000000000000000000000000000000000000000005f610f1e565b955095509592505050565b5f8054819081906001600160a01b031633146108a45760405162461bcd60e51b815260040161047f9061121f565b5f87116108de5760405162461bcd60e51b81526020600482015260086024820152671e995c9bc819d85960c21b604482015260640161047f565b6109297f00000000000000000000000000000000000000000000000000000000000000007f00000000000000000000000000000000000000000000000000000000000000005f610f1e565b6109747f00000000000000000000000000000000000000000000000000000000000000007f000000000000000000000000000000000000000000000000000000000000000089610f1e565b60015460405163f305d71960e01b81526001600160a01b037f000000000000000000000000000000000000000000000000000000000000000081166004830152602482018a90526044820189905260648201889052918216608482015260a481018690527f00000000000000000000000000000000000000000000000000000000000000009091169063f305d71990879060c40160606040518083038185885af1158015610a24573d5f803e3d5ffd5b50505050506040513d601f19601f82011682018060405250810190610a499190611260565b604080518481526020810184905290810182905292955090935091507fe3b96975da98c1f7ec252d42bb15f7bc2928db0152fd22d9dfbf527220c847df9060600160405180910390a1610add7f00000000000000000000000000000000000000000000000000000000000000007f00000000000000000000000000000000000000000000000000000000000000005f610f1e565b9450945094915050565b335f9081526002602052604090205460ff16610b335760405162461bcd60e51b815260206004820152600b60248201526a1b9bdd08185b1b1bddd95960aa1b604482015260640161047f565b5f8111610b525760405162461bcd60e51b815260040161047f90611242565b7f00000000000000000000000000000000000000000000000000000000000000006001600160a01b0316826001600160a01b03161480610bc357507f00000000000000000000000000000000000000000000000000000000000000006001600160a01b0316826001600160a01b0316145b610c035760405162461bcd60e51b81526020600482015260116024820152701d1bdad95b881b9bdd08185b1b1bddd959607a1b604482015260640161047f565b6040516323b872dd60e01b8152336004820152306024820152604481018290526001600160a01b038316906323b872dd906064016020604051808303815f875af1158015610c53573d5f803e3d5ffd5b505050506040513d601f19601f82011682018060405250810190610c77919061128b565b610cb95760405162461bcd60e51b81526020600482015260136024820152721d1c985b9cd9995c919c9bdb4819985a5b1959606a1b604482015260640161047f565b60405181815233906001600160a01b038416907f4b3f81827ede20c81afbf1bb77b954afcdcae24d391d99042310cb1d9210dd579060200160405180910390a35050565b335f9081526002602052604090205460ff16610d495760405162461bcd60e51b815260206004820152600b60248201526a1b9bdd08185b1b1bddd95960aa1b604482015260640161047f565b5f3411610d685760405162461bcd60e51b815260040161047f90611242565b60405134815233907f87cb53a38fc102d7b0db87aed7b34c801c2994738947c12489e9bcbc3cd3ef299060200160405180910390a2565b6040516370a0823160e01b81523060048201525f907f00000000000000000000000000000000000000000000000000000000000000006001600160a01b0316906370a0823190602401610412565b5f546001600160a01b03163314610e165760405162461bcd60e51b815260040161047f9061121f565b6001600160a01b0382165f81815260026020908152604091829020805460ff191685151590811790915591519182527f2444fb0d1fe84b2795e40013e1c54a31c773bfd08c00b4e63b8dd7fce04b5d00910160405180910390a25050565b5f546001600160a01b03163314610e9d5760405162461bcd60e51b815260040161047f9061121f565b6001600160a01b038116610ec35760405162461bcd60e51b815260040161047f90611242565b6001546040516001600160a01b038084169216907f344b985461c99963c8a6eb84c2de53a4f44831a78e94fac76f71f00d3a6e8e4c905f90a3600180546001600160a01b0319166001600160a01b0392909216919091179055565b604051636eb1769f60e11b81523060048201526001600160a01b03838116602483015284915f9183169063dd62ed3e90604401602060405180830381865afa158015610f6c573d5f803e3d5ffd5b505050506040513d601f19601f82011682018060405250810190610f909190611208565b905080156110485760405163095ea7b360e01b81526001600160a01b0385811660048301525f602483015283169063095ea7b3906044016020604051808303815f875af1158015610fe3573d5f803e3d5ffd5b505050506040513d601f19601f82011682018060405250810190611007919061128b565b6110485760405162461bcd60e51b8152602060048201526012602482015271185c1c1c9bdd99481c995cd95d0819985a5b60721b604482015260640161047f565b60405163095ea7b360e01b81526001600160a01b0385811660048301526024820185905283169063095ea7b3906044016020604051808303815f875af1158015611094573d5f803e3d5ffd5b505050506040513d601f19601f820116820180604052508101906110b8919061128b565b6110f35760405162461bcd60e51b815260206004820152600c60248201526b185c1c1c9bdd994819985a5b60a21b604482015260640161047f565b5050505050565b80356001600160a01b0381168114611110575f80fd5b919050565b5f60208284031215611125575f80fd5b61112e826110fa565b9392505050565b5f805f805f60a08688031215611149575f80fd5b505083359560208501359550604085013594606081013594506080013592509050565b5f805f806080858703121561117f575f80fd5b5050823594602084013594506040840135936060013592509050565b5f80604083850312156111ac575f80fd5b6111b5836110fa565b946020939093013593505050565b80151581146111d0575f80fd5b50565b5f80604083850312156111e4575f80fd5b6111ed836110fa565b915060208301356111fd816111c3565b809150509250929050565b5f60208284031215611218575f80fd5b5051919050565b6020808252600990820152683737ba1037bbb732b960b91b604082015260600190565b6020808252600490820152637a65726f60e01b604082015260600190565b5f805f60608486031215611272575f80fd5b8351925060208401519150604084015190509250925092565b5f6020828403121561129b575f80fd5b815161112e816111c356fea26469706673582212204d8aa7d3fe5e7814d0863354ac28f566c65f465d54bdad978f2069f4c11f04ba64736f6c63430008180033","opcodes":"PUSH2 0x100 PUSH1 0x40 MSTORE CALLVALUE DUP1 ISZERO PUSH3 0x11 JUMPI PUSH0 DUP1 REVERT JUMPDEST POP PUSH1 0x40 MLOAD PUSH3 0x15C6 CODESIZE SUB DUP1 PUSH3 0x15C6 DUP4 CODECOPY DUP2 ADD PUSH1 0x40 DUP2 SWAP1 MSTORE PUSH3 0x34 SWAP2 PUSH3 0x17C JUMP JUMPDEST PUSH1 0x1 PUSH1 0x1 PUSH1 0xA0 SHL SUB DUP7 AND ISZERO DUP1 ISZERO SWAP1 PUSH3 0x55 JUMPI POP PUSH1 0x1 PUSH1 0x1 PUSH1 0xA0 SHL SUB DUP6 AND ISZERO ISZERO JUMPDEST DUP1 ISZERO PUSH3 0x6A JUMPI POP PUSH1 0x1 PUSH1 0x1 PUSH1 0xA0 SHL SUB DUP5 AND ISZERO ISZERO JUMPDEST DUP1 ISZERO PUSH3 0x7F JUMPI POP PUSH1 0x1 PUSH1 0x1 PUSH1 0xA0 SHL SUB DUP4 AND ISZERO ISZERO JUMPDEST PUSH3 0xBD JUMPI PUSH1 0x40 MLOAD PUSH3 0x461BCD PUSH1 0xE5 SHL DUP2 MSTORE PUSH1 0x20 PUSH1 0x4 DUP3 ADD MSTORE PUSH1 0x9 PUSH1 0x24 DUP3 ADD MSTORE PUSH9 0x3D32B9379030B23239 PUSH1 0xB9 SHL PUSH1 0x44 DUP3 ADD MSTORE PUSH1 0x64 ADD JUMPDEST PUSH1 0x40 MLOAD DUP1 SWAP2 SUB SWAP1 REVERT JUMPDEST PUSH1 0x1 PUSH1 0x1 PUSH1 0xA0 SHL SUB DUP3 AND ISZERO DUP1 ISZERO SWAP1 PUSH3 0xDE JUMPI POP PUSH1 0x1 PUSH1 0x1 PUSH1 0xA0 SHL SUB DUP2 AND ISZERO ISZERO JUMPDEST PUSH3 0x119 JUMPI PUSH1 0x40 MLOAD PUSH3 0x461BCD PUSH1 0xE5 SHL DUP2 MSTORE PUSH1 0x20 PUSH1 0x4 DUP3 ADD MSTORE PUSH1 0xA PUSH1 0x24 DUP3 ADD MSTORE PUSH10 0x3D32B9379030B236B4B7 PUSH1 0xB1 SHL PUSH1 0x44 DUP3 ADD MSTORE PUSH1 0x64 ADD PUSH3 0xB4 JUMP JUMPDEST PUSH1 0x1 PUSH1 0x1 PUSH1 0xA0 SHL SUB SWAP6 DUP7 AND PUSH1 0x80 MSTORE SWAP4 DUP6 AND PUSH1 0xA0 MSTORE SWAP2 DUP5 AND PUSH1 0xC0 MSTORE DUP4 AND PUSH1 0xE0 MSTORE PUSH0 DUP1 SLOAD SWAP2 DUP5 AND PUSH1 0x1 PUSH1 0x1 PUSH1 0xA0 SHL SUB NOT SWAP3 DUP4 AND OR SWAP1 SSTORE PUSH1 0x1 DUP1 SLOAD SWAP3 SWAP1 SWAP4 AND SWAP2 AND OR SWAP1 SSTORE PUSH3 0x1F9 JUMP JUMPDEST DUP1 MLOAD PUSH1 0x1 PUSH1 0x1 PUSH1 0xA0 SHL SUB DUP2 AND DUP2 EQ PUSH3 0x177 JUMPI PUSH0 DUP1 REVERT JUMPDEST SWAP2 SWAP1 POP JUMP JUMPDEST PUSH0 DUP1 PUSH0 DUP1 PUSH0 DUP1 PUSH1 0xC0 DUP8 DUP10 SUB SLT ISZERO PUSH3 0x192 JUMPI PUSH0 DUP1 REVERT JUMPDEST PUSH3 0x19D DUP8 PUSH3 0x160 JUMP JUMPDEST SWAP6 POP PUSH3 0x1AD PUSH1 0x20 DUP9 ADD PUSH3 0x160 JUMP JUMPDEST SWAP5 POP PUSH3 0x1BD PUSH1 0x40 DUP9 ADD PUSH3 0x160 JUMP JUMPDEST SWAP4 POP PUSH3 0x1CD PUSH1 0x60 DUP9 ADD PUSH3 0x160 JUMP JUMPDEST SWAP3 POP PUSH3 0x1DD PUSH1 0x80 DUP9 ADD PUSH3 0x160 JUMP JUMPDEST SWAP2 POP PUSH3 0x1ED PUSH1 0xA0 DUP9 ADD PUSH3 0x160 JUMP JUMPDEST SWAP1 POP SWAP3 SWAP6 POP SWAP3 SWAP6 POP SWAP3 SWAP6 JUMP JUMPDEST PUSH1 0x80 MLOAD PUSH1 0xA0 MLOAD PUSH1 0xC0 MLOAD PUSH1 0xE0 MLOAD PUSH2 0x12DC PUSH3 0x2EA PUSH0 CODECOPY PUSH0 DUP2 DUP2 PUSH2 0x226 ADD MSTORE DUP2 DUP2 PUSH2 0x585 ADD MSTORE DUP2 DUP2 PUSH2 0x5D0 ADD MSTORE DUP2 DUP2 PUSH2 0x61B ADD MSTORE DUP2 DUP2 PUSH2 0x666 ADD MSTORE DUP2 DUP2 PUSH2 0x71F ADD MSTORE DUP2 DUP2 PUSH2 0x7FB ADD MSTORE DUP2 DUP2 PUSH2 0x846 ADD MSTORE DUP2 DUP2 PUSH2 0x904 ADD MSTORE DUP2 DUP2 PUSH2 0x94F ADD MSTORE DUP2 DUP2 PUSH2 0x9DA ADD MSTORE PUSH2 0xAB8 ADD MSTORE PUSH0 PUSH2 0x342 ADD MSTORE PUSH0 DUP2 DUP2 PUSH2 0x394 ADD MSTORE DUP2 DUP2 PUSH2 0x5AF ADD MSTORE DUP2 DUP2 PUSH2 0x645 ADD MSTORE DUP2 DUP2 PUSH2 0x6CC ADD MSTORE DUP2 DUP2 PUSH2 0x825 ADD MSTORE DUP2 DUP2 PUSH2 0xB54 ADD MSTORE PUSH2 0xDB6 ADD MSTORE PUSH0 DUP2 DUP2 PUSH2 0x2F1 ADD MSTORE DUP2 DUP2 PUSH2 0x3DF ADD MSTORE DUP2 DUP2 PUSH2 0x564 ADD MSTORE DUP2 DUP2 PUSH2 0x5FA ADD MSTORE DUP2 DUP2 PUSH2 0x6A4 ADD MSTORE DUP2 DUP2 PUSH2 0x7DA ADD MSTORE DUP2 DUP2 PUSH2 0x8E3 ADD MSTORE DUP2 DUP2 PUSH2 0x92E ADD MSTORE DUP2 DUP2 PUSH2 0x98E ADD MSTORE DUP2 DUP2 PUSH2 0xA97 ADD MSTORE PUSH2 0xB8F ADD MSTORE PUSH2 0x12DC PUSH0 RETURN INVALID PUSH1 0x80 PUSH1 0x40 MSTORE PUSH1 0x4 CALLDATASIZE LT PUSH2 0xFD JUMPI PUSH0 CALLDATALOAD PUSH1 0xE0 SHR DUP1 PUSH4 0x482EDB07 GT PUSH2 0x92 JUMPI DUP1 PUSH4 0x8DA5CB5B GT PUSH2 0x62 JUMPI DUP1 PUSH4 0x8DA5CB5B EQ PUSH2 0x313 JUMPI DUP1 PUSH4 0x8DD95002 EQ PUSH2 0x331 JUMPI DUP1 PUSH4 0xAD8F3467 EQ PUSH2 0x364 JUMPI DUP1 PUSH4 0xC54E44EB EQ PUSH2 0x383 JUMPI DUP1 PUSH4 0xD013CBE2 EQ PUSH2 0x3B6 JUMPI PUSH0 DUP1 REVERT JUMPDEST DUP1 PUSH4 0x482EDB07 EQ PUSH2 0x26F JUMPI DUP1 PUSH4 0x483C2EF0 EQ PUSH2 0x283 JUMPI DUP1 PUSH4 0x6F860D74 EQ PUSH2 0x2C1 JUMPI DUP1 PUSH4 0x81F5AEFC EQ PUSH2 0x2E0 JUMPI PUSH0 DUP1 REVERT JUMPDEST DUP1 PUSH4 0x26B0064E GT PUSH2 0xCD JUMPI DUP1 PUSH4 0x26B0064E EQ PUSH2 0x1F6 JUMPI DUP1 PUSH4 0x32FE7B26 EQ PUSH2 0x215 JUMPI DUP1 PUSH4 0x338B5DEA EQ PUSH2 0x248 JUMPI DUP1 PUSH4 0x42220F34 EQ PUSH2 0x267 JUMPI PUSH0 DUP1 REVERT JUMPDEST DUP1 PUSH4 0xBDCAADF EQ PUSH2 0x13D JUMPI DUP1 PUSH4 0x13AF4035 EQ PUSH2 0x164 JUMPI DUP1 PUSH4 0x18444401 EQ PUSH2 0x185 JUMPI DUP1 PUSH4 0x1F0C57FC EQ PUSH2 0x1BF JUMPI PUSH0 DUP1 REVERT JUMPDEST CALLDATASIZE PUSH2 0x139 JUMPI PUSH1 0x40 MLOAD CALLVALUE DUP2 MSTORE CALLER SWAP1 PUSH32 0x87CB53A38FC102D7B0DB87AED7B34C801C2994738947C12489E9BCBC3CD3EF29 SWAP1 PUSH1 0x20 ADD PUSH1 0x40 MLOAD DUP1 SWAP2 SUB SWAP1 LOG2 STOP JUMPDEST PUSH0 DUP1 REVERT JUMPDEST CALLVALUE DUP1 ISZERO PUSH2 0x148 JUMPI PUSH0 DUP1 REVERT JUMPDEST POP PUSH2 0x151 PUSH2 0x3C8 JUMP JUMPDEST PUSH1 0x40 MLOAD SWAP1 DUP2 MSTORE PUSH1 0x20 ADD JUMPDEST PUSH1 0x40 MLOAD DUP1 SWAP2 SUB SWAP1 RETURN JUMPDEST CALLVALUE DUP1 ISZERO PUSH2 0x16F JUMPI PUSH0 DUP1 REVERT JUMPDEST POP PUSH2 0x183 PUSH2 0x17E CALLDATASIZE PUSH1 0x4 PUSH2 0x1115 JUMP JUMPDEST PUSH2 0x456 JUMP JUMPDEST STOP JUMPDEST CALLVALUE DUP1 ISZERO PUSH2 0x190 JUMPI PUSH0 DUP1 REVERT JUMPDEST POP PUSH2 0x1A4 PUSH2 0x19F CALLDATASIZE PUSH1 0x4 PUSH2 0x1135 JUMP JUMPDEST PUSH2 0x507 JUMP JUMPDEST PUSH1 0x40 DUP1 MLOAD SWAP4 DUP5 MSTORE PUSH1 0x20 DUP5 ADD SWAP3 SWAP1 SWAP3 MSTORE SWAP1 DUP3 ADD MSTORE PUSH1 0x60 ADD PUSH2 0x15B JUMP JUMPDEST CALLVALUE DUP1 ISZERO PUSH2 0x1CA JUMPI PUSH0 DUP1 REVERT JUMPDEST POP PUSH1 0x1 SLOAD PUSH2 0x1DE SWAP1 PUSH1 0x1 PUSH1 0x1 PUSH1 0xA0 SHL SUB AND DUP2 JUMP JUMPDEST PUSH1 0x40 MLOAD PUSH1 0x1 PUSH1 0x1 PUSH1 0xA0 SHL SUB SWAP1 SWAP2 AND DUP2 MSTORE PUSH1 0x20 ADD PUSH2 0x15B JUMP JUMPDEST CALLVALUE DUP1 ISZERO PUSH2 0x201 JUMPI PUSH0 DUP1 REVERT JUMPDEST POP PUSH2 0x1A4 PUSH2 0x210 CALLDATASIZE PUSH1 0x4 PUSH2 0x116C JUMP JUMPDEST PUSH2 0x876 JUMP JUMPDEST CALLVALUE DUP1 ISZERO PUSH2 0x220 JUMPI PUSH0 DUP1 REVERT JUMPDEST POP PUSH2 0x1DE PUSH32 0x0 DUP2 JUMP JUMPDEST CALLVALUE DUP1 ISZERO PUSH2 0x253 JUMPI PUSH0 DUP1 REVERT JUMPDEST POP PUSH2 0x183 PUSH2 0x262 CALLDATASIZE PUSH1 0x4 PUSH2 0x119B JUMP JUMPDEST PUSH2 0xAE7 JUMP JUMPDEST PUSH2 0x183 PUSH2 0xCFD JUMP JUMPDEST CALLVALUE DUP1 ISZERO PUSH2 0x27A JUMPI PUSH0 DUP1 REVERT JUMPDEST POP PUSH2 0x151 PUSH2 0xD9F JUMP JUMPDEST CALLVALUE DUP1 ISZERO PUSH2 0x28E JUMPI PUSH0 DUP1 REVERT JUMPDEST POP PUSH2 0x2B1 PUSH2 0x29D CALLDATASIZE PUSH1 0x4 PUSH2 0x1115 JUMP JUMPDEST PUSH1 0x2 PUSH1 0x20 MSTORE PUSH0 SWAP1 DUP2 MSTORE PUSH1 0x40 SWAP1 KECCAK256 SLOAD PUSH1 0xFF AND DUP2 JUMP JUMPDEST PUSH1 0x40 MLOAD SWAP1 ISZERO ISZERO DUP2 MSTORE PUSH1 0x20 ADD PUSH2 0x15B JUMP JUMPDEST CALLVALUE DUP1 ISZERO PUSH2 0x2CC JUMPI PUSH0 DUP1 REVERT JUMPDEST POP PUSH2 0x183 PUSH2 0x2DB CALLDATASIZE PUSH1 0x4 PUSH2 0x11D3 JUMP JUMPDEST PUSH2 0xDED JUMP JUMPDEST CALLVALUE DUP1 ISZERO PUSH2 0x2EB JUMPI PUSH0 DUP1 REVERT JUMPDEST POP PUSH2 0x1DE PUSH32 0x0 DUP2 JUMP JUMPDEST CALLVALUE DUP1 ISZERO PUSH2 0x31E JUMPI PUSH0 DUP1 REVERT JUMPDEST POP PUSH0 SLOAD PUSH2 0x1DE SWAP1 PUSH1 0x1 PUSH1 0x1 PUSH1 0xA0 SHL SUB AND DUP2 JUMP JUMPDEST CALLVALUE DUP1 ISZERO PUSH2 0x33C JUMPI PUSH0 DUP1 REVERT JUMPDEST POP PUSH2 0x1DE PUSH32 0x0 DUP2 JUMP JUMPDEST CALLVALUE DUP1 ISZERO PUSH2 0x36F JUMPI PUSH0 DUP1 REVERT JUMPDEST POP PUSH2 0x183 PUSH2 0x37E CALLDATASIZE PUSH1 0x4 PUSH2 0x1115 JUMP JUMPDEST PUSH2 0xE74 JUMP JUMPDEST CALLVALUE DUP1 ISZERO PUSH2 0x38E JUMPI PUSH0 DUP1 REVERT JUMPDEST POP PUSH2 0x1DE PUSH32 0x0 DUP2 JUMP JUMPDEST CALLVALUE DUP1 ISZERO PUSH2 0x3C1 JUMPI PUSH0 DUP1 REVERT JUMPDEST POP SELFBALANCE PUSH2 0x151 JUMP JUMPDEST PUSH1 0x40 MLOAD PUSH4 0x70A08231 PUSH1 0xE0 SHL DUP2 MSTORE ADDRESS PUSH1 0x4 DUP3 ADD MSTORE PUSH0 SWAP1 PUSH32 0x0 PUSH1 0x1 PUSH1 0x1 PUSH1 0xA0 SHL SUB AND SWAP1 PUSH4 0x70A08231 SWAP1 PUSH1 0x24 ADD JUMPDEST PUSH1 0x20 PUSH1 0x40 MLOAD DUP1 DUP4 SUB DUP2 DUP7 GAS STATICCALL ISZERO DUP1 ISZERO PUSH2 0x42D JUMPI RETURNDATASIZE PUSH0 DUP1 RETURNDATACOPY RETURNDATASIZE PUSH0 REVERT JUMPDEST POP POP POP POP PUSH1 0x40 MLOAD RETURNDATASIZE PUSH1 0x1F NOT PUSH1 0x1F DUP3 ADD AND DUP3 ADD DUP1 PUSH1 0x40 MSTORE POP DUP2 ADD SWAP1 PUSH2 0x451 SWAP2 SWAP1 PUSH2 0x1208 JUMP JUMPDEST SWAP1 POP SWAP1 JUMP JUMPDEST PUSH0 SLOAD PUSH1 0x1 PUSH1 0x1 PUSH1 0xA0 SHL SUB AND CALLER EQ PUSH2 0x488 JUMPI PUSH1 0x40 MLOAD PUSH3 0x461BCD PUSH1 0xE5 SHL DUP2 MSTORE PUSH1 0x4 ADD PUSH2 0x47F SWAP1 PUSH2 0x121F JUMP JUMPDEST PUSH1 0x40 MLOAD DUP1 SWAP2 SUB SWAP1 REVERT JUMPDEST PUSH1 0x1 PUSH1 0x1 PUSH1 0xA0 SHL SUB DUP2 AND PUSH2 0x4AE JUMPI PUSH1 0x40 MLOAD PUSH3 0x461BCD PUSH1 0xE5 SHL DUP2 MSTORE PUSH1 0x4 ADD PUSH2 0x47F SWAP1 PUSH2 0x1242 JUMP JUMPDEST PUSH0 DUP1 SLOAD PUSH1 0x40 MLOAD PUSH1 0x1 PUSH1 0x1 PUSH1 0xA0 SHL SUB DUP1 DUP6 AND SWAP4 SWAP3 AND SWAP2 PUSH32 0xB532073B38C83145E3E5135377A08BF9AAB55BC0FD7C1179CD4FB995D2A5159C SWAP2 LOG3 PUSH0 DUP1 SLOAD PUSH1 0x1 PUSH1 0x1 PUSH1 0xA0 SHL SUB NOT AND PUSH1 0x1 PUSH1 0x1 PUSH1 0xA0 SHL SUB SWAP3 SWAP1 SWAP3 AND SWAP2 SWAP1 SWAP2 OR SWAP1 SSTORE JUMP JUMPDEST PUSH0 DUP1 SLOAD DUP2 SWAP1 DUP2 SWAP1 PUSH1 0x1 PUSH1 0x1 PUSH1 0xA0 SHL SUB AND CALLER EQ PUSH2 0x535 JUMPI PUSH1 0x40 MLOAD PUSH3 0x461BCD PUSH1 0xE5 SHL DUP2 MSTORE PUSH1 0x4 ADD PUSH2 0x47F SWAP1 PUSH2 0x121F JUMP JUMPDEST PUSH0 DUP9 GT DUP1 ISZERO PUSH2 0x543 JUMPI POP PUSH0 DUP8 GT JUMPDEST PUSH2 0x55F JUMPI PUSH1 0x40 MLOAD PUSH3 0x461BCD PUSH1 0xE5 SHL DUP2 MSTORE PUSH1 0x4 ADD PUSH2 0x47F SWAP1 PUSH2 0x1242 JUMP JUMPDEST PUSH2 0x5AA PUSH32 0x0 PUSH32 0x0 PUSH0 PUSH2 0xF1E JUMP JUMPDEST PUSH2 0x5F5 PUSH32 0x0 PUSH32 0x0 PUSH0 PUSH2 0xF1E JUMP JUMPDEST PUSH2 0x640 PUSH32 0x0 PUSH32 0x0 DUP11 PUSH2 0xF1E JUMP JUMPDEST PUSH2 0x68B PUSH32 0x0 PUSH32 0x0 DUP10 PUSH2 0xF1E JUMP JUMPDEST PUSH1 0x1 SLOAD PUSH1 0x40 MLOAD PUSH3 0xE8E337 PUSH1 0xE8 SHL DUP2 MSTORE PUSH1 0x1 PUSH1 0x1 PUSH1 0xA0 SHL SUB PUSH32 0x0 DUP2 AND PUSH1 0x4 DUP4 ADD MSTORE PUSH32 0x0 DUP2 AND PUSH1 0x24 DUP4 ADD MSTORE PUSH1 0x44 DUP3 ADD DUP12 SWAP1 MSTORE PUSH1 0x64 DUP3 ADD DUP11 SWAP1 MSTORE PUSH1 0x84 DUP3 ADD DUP10 SWAP1 MSTORE PUSH1 0xA4 DUP3 ADD DUP9 SWAP1 MSTORE SWAP2 DUP3 AND PUSH1 0xC4 DUP3 ADD MSTORE PUSH1 0xE4 DUP2 ADD DUP7 SWAP1 MSTORE PUSH32 0x0 SWAP1 SWAP2 AND SWAP1 PUSH4 0xE8E33700 SWAP1 PUSH2 0x104 ADD PUSH1 0x60 PUSH1 0x40 MLOAD DUP1 DUP4 SUB DUP2 PUSH0 DUP8 GAS CALL ISZERO DUP1 ISZERO PUSH2 0x768 JUMPI RETURNDATASIZE PUSH0 DUP1 RETURNDATACOPY RETURNDATASIZE PUSH0 REVERT JUMPDEST POP POP POP POP PUSH1 0x40 MLOAD RETURNDATASIZE PUSH1 0x1F NOT PUSH1 0x1F DUP3 ADD AND DUP3 ADD DUP1 PUSH1 0x40 MSTORE POP DUP2 ADD SWAP1 PUSH2 0x78C SWAP2 SWAP1 PUSH2 0x1260 JUMP JUMPDEST PUSH1 0x40 DUP1 MLOAD DUP5 DUP2 MSTORE PUSH1 0x20 DUP2 ADD DUP5 SWAP1 MSTORE SWAP1 DUP2 ADD DUP3 SWAP1 MSTORE SWAP3 SWAP6 POP SWAP1 SWAP4 POP SWAP2 POP PUSH32 0xB367B4F9087A7460631E6253DDABF2C09AD7647F151C3F84873E7C0FE429283E SWAP1 PUSH1 0x60 ADD PUSH1 0x40 MLOAD DUP1 SWAP2 SUB SWAP1 LOG1 PUSH2 0x820 PUSH32 0x0 PUSH32 0x0 PUSH0 PUSH2 0xF1E JUMP JUMPDEST PUSH2 0x86B PUSH32 0x0 PUSH32 0x0 PUSH0 PUSH2 0xF1E JUMP JUMPDEST SWAP6 POP SWAP6 POP SWAP6 SWAP3 POP POP POP JUMP JUMPDEST PUSH0 DUP1 SLOAD DUP2 SWAP1 DUP2 SWAP1 PUSH1 0x1 PUSH1 0x1 PUSH1 0xA0 SHL SUB AND CALLER EQ PUSH2 0x8A4 JUMPI PUSH1 0x40 MLOAD PUSH3 0x461BCD PUSH1 0xE5 SHL DUP2 MSTORE PUSH1 0x4 ADD PUSH2 0x47F SWAP1 PUSH2 0x121F JUMP JUMPDEST PUSH0 DUP8 GT PUSH2 0x8DE JUMPI PUSH1 0x40 MLOAD PUSH3 0x461BCD PUSH1 0xE5 SHL DUP2 MSTORE PUSH1 0x20 PUSH1 0x4 DUP3 ADD MSTORE PUSH1 0x8 PUSH1 0x24 DUP3 ADD MSTORE PUSH8 0x1E995C9BC819D859 PUSH1 0xC2 SHL PUSH1 0x44 DUP3 ADD MSTORE PUSH1 0x64 ADD PUSH2 0x47F JUMP JUMPDEST PUSH2 0x929 PUSH32 0x0 PUSH32 0x0 PUSH0 PUSH2 0xF1E JUMP JUMPDEST PUSH2 0x974 PUSH32 0x0 PUSH32 0x0 DUP10 PUSH2 0xF1E JUMP JUMPDEST PUSH1 0x1 SLOAD PUSH1 0x40 MLOAD PUSH4 0xF305D719 PUSH1 0xE0 SHL DUP2 MSTORE PUSH1 0x1 PUSH1 0x1 PUSH1 0xA0 SHL SUB PUSH32 0x0 DUP2 AND PUSH1 0x4 DUP4 ADD MSTORE PUSH1 0x24 DUP3 ADD DUP11 SWAP1 MSTORE PUSH1 0x44 DUP3 ADD DUP10 SWAP1 MSTORE PUSH1 0x64 DUP3 ADD DUP9 SWAP1 MSTORE SWAP2 DUP3 AND PUSH1 0x84 DUP3 ADD MSTORE PUSH1 0xA4 DUP2 ADD DUP7 SWAP1 MSTORE PUSH32 0x0 SWAP1 SWAP2 AND SWAP1 PUSH4 0xF305D719 SWAP1 DUP8 SWAP1 PUSH1 0xC4 ADD PUSH1 0x60 PUSH1 0x40 MLOAD DUP1 DUP4 SUB DUP2 DUP6 DUP9 GAS CALL ISZERO DUP1 ISZERO PUSH2 0xA24 JUMPI RETURNDATASIZE PUSH0 DUP1 RETURNDATACOPY RETURNDATASIZE PUSH0 REVERT JUMPDEST POP POP POP POP POP PUSH1 0x40 MLOAD RETURNDATASIZE PUSH1 0x1F NOT PUSH1 0x1F DUP3 ADD AND DUP3 ADD DUP1 PUSH1 0x40 MSTORE POP DUP2 ADD SWAP1 PUSH2 0xA49 SWAP2 SWAP1 PUSH2 0x1260 JUMP JUMPDEST PUSH1 0x40 DUP1 MLOAD DUP5 DUP2 MSTORE PUSH1 0x20 DUP2 ADD DUP5 SWAP1 MSTORE SWAP1 DUP2 ADD DUP3 SWAP1 MSTORE SWAP3 SWAP6 POP SWAP1 SWAP4 POP SWAP2 POP PUSH32 0xE3B96975DA98C1F7EC252D42BB15F7BC2928DB0152FD22D9DFBF527220C847DF SWAP1 PUSH1 0x60 ADD PUSH1 0x40 MLOAD DUP1 SWAP2 SUB SWAP1 LOG1 PUSH2 0xADD PUSH32 0x0 PUSH32 0x0 PUSH0 PUSH2 0xF1E JUMP JUMPDEST SWAP5 POP SWAP5 POP SWAP5 SWAP2 POP POP JUMP JUMPDEST CALLER PUSH0 SWAP1 DUP2 MSTORE PUSH1 0x2 PUSH1 0x20 MSTORE PUSH1 0x40 SWAP1 KECCAK256 SLOAD PUSH1 0xFF AND PUSH2 0xB33 JUMPI PUSH1 0x40 MLOAD PUSH3 0x461BCD PUSH1 0xE5 SHL DUP2 MSTORE PUSH1 0x20 PUSH1 0x4 DUP3 ADD MSTORE PUSH1 0xB PUSH1 0x24 DUP3 ADD MSTORE PUSH11 0x1B9BDD08185B1B1BDDD959 PUSH1 0xAA SHL PUSH1 0x44 DUP3 ADD MSTORE PUSH1 0x64 ADD PUSH2 0x47F JUMP JUMPDEST PUSH0 DUP2 GT PUSH2 0xB52 JUMPI PUSH1 0x40 MLOAD PUSH3 0x461BCD PUSH1 0xE5 SHL DUP2 MSTORE PUSH1 0x4 ADD PUSH2 0x47F SWAP1 PUSH2 0x1242 JUMP JUMPDEST PUSH32 0x0 PUSH1 0x1 PUSH1 0x1 PUSH1 0xA0 SHL SUB AND DUP3 PUSH1 0x1 PUSH1 0x1 PUSH1 0xA0 SHL SUB AND EQ DUP1 PUSH2 0xBC3 JUMPI POP PUSH32 0x0 PUSH1 0x1 PUSH1 0x1 PUSH1 0xA0 SHL SUB AND DUP3 PUSH1 0x1 PUSH1 0x1 PUSH1 0xA0 SHL SUB AND EQ JUMPDEST PUSH2 0xC03 JUMPI PUSH1 0x40 MLOAD PUSH3 0x461BCD PUSH1 0xE5 SHL DUP2 MSTORE PUSH1 0x20 PUSH1 0x4 DUP3 ADD MSTORE PUSH1 0x11 PUSH1 0x24 DUP3 ADD MSTORE PUSH17 0x1D1BDAD95B881B9BDD08185B1B1BDDD959 PUSH1 0x7A SHL PUSH1 0x44 DUP3 ADD MSTORE PUSH1 0x64 ADD PUSH2 0x47F JUMP JUMPDEST PUSH1 0x40 MLOAD PUSH4 0x23B872DD PUSH1 0xE0 SHL DUP2 MSTORE CALLER PUSH1 0x4 DUP3 ADD MSTORE ADDRESS PUSH1 0x24 DUP3 ADD MSTORE PUSH1 0x44 DUP2 ADD DUP3 SWAP1 MSTORE PUSH1 0x1 PUSH1 0x1 PUSH1 0xA0 SHL SUB DUP4 AND SWAP1 PUSH4 0x23B872DD SWAP1 PUSH1 0x64 ADD PUSH1 0x20 PUSH1 0x40 MLOAD DUP1 DUP4 SUB DUP2 PUSH0 DUP8 GAS CALL ISZERO DUP1 ISZERO PUSH2 0xC53 JUMPI RETURNDATASIZE PUSH0 DUP1 RETURNDATACOPY RETURNDATASIZE PUSH0 REVERT JUMPDEST POP POP POP POP PUSH1 0x40 MLOAD RETURNDATASIZE PUSH1 0x1F NOT PUSH1 0x1F DUP3 ADD AND DUP3 ADD DUP1 PUSH1 0x40 MSTORE POP DUP2 ADD SWAP1 PUSH2 0xC77 SWAP2 SWAP1 PUSH2 0x128B JUMP JUMPDEST PUSH2 0xCB9 JUMPI PUSH1 0x40 MLOAD PUSH3 0x461BCD PUSH1 0xE5 SHL DUP2 MSTORE PUSH1 0x20 PUSH1 0x4 DUP3 ADD MSTORE PUSH1 0x13 PUSH1 0x24 DUP3 ADD MSTORE PUSH19 0x1D1C985B9CD9995C919C9BDB4819985A5B1959 PUSH1 0x6A SHL PUSH1 0x44 DUP3 ADD MSTORE PUSH1 0x64 ADD PUSH2 0x47F JUMP JUMPDEST PUSH1 0x40 MLOAD DUP2 DUP2 MSTORE CALLER SWAP1 PUSH1 0x1 PUSH1 0x1 PUSH1 0xA0 SHL SUB DUP5 AND SWAP1 PUSH32 0x4B3F81827EDE20C81AFBF1BB77B954AFCDCAE24D391D99042310CB1D9210DD57 SWAP1 PUSH1 0x20 ADD PUSH1 0x40 MLOAD DUP1 SWAP2 SUB SWAP1 LOG3 POP POP JUMP JUMPDEST CALLER PUSH0 SWAP1 DUP2 MSTORE PUSH1 0x2 PUSH1 0x20 MSTORE PUSH1 0x40 SWAP1 KECCAK256 SLOAD PUSH1 0xFF AND PUSH2 0xD49 JUMPI PUSH1 0x40 MLOAD PUSH3 0x461BCD PUSH1 0xE5 SHL DUP2 MSTORE PUSH1 0x20 PUSH1 0x4 DUP3 ADD MSTORE PUSH1 0xB PUSH1 0x24 DUP3 ADD MSTORE PUSH11 0x1B9BDD08185B1B1BDDD959 PUSH1 0xAA SHL PUSH1 0x44 DUP3 ADD MSTORE PUSH1 0x64 ADD PUSH2 0x47F JUMP JUMPDEST PUSH0 CALLVALUE GT PUSH2 0xD68 JUMPI PUSH1 0x40 MLOAD PUSH3 0x461BCD PUSH1 0xE5 SHL DUP2 MSTORE PUSH1 0x4 ADD PUSH2 0x47F SWAP1 PUSH2 0x1242 JUMP JUMPDEST PUSH1 0x40 MLOAD CALLVALUE DUP2 MSTORE CALLER SWAP1 PUSH32 0x87CB53A38FC102D7B0DB87AED7B34C801C2994738947C12489E9BCBC3CD3EF29 SWAP1 PUSH1 0x20 ADD PUSH1 0x40 MLOAD DUP1 SWAP2 SUB SWAP1 LOG2 JUMP JUMPDEST PUSH1 0x40 MLOAD PUSH4 0x70A08231 PUSH1 0xE0 SHL DUP2 MSTORE ADDRESS PUSH1 0x4 DUP3 ADD MSTORE PUSH0 SWAP1 PUSH32 0x0 PUSH1 0x1 PUSH1 0x1 PUSH1 0xA0 SHL SUB AND SWAP1 PUSH4 0x70A08231 SWAP1 PUSH1 0x24 ADD PUSH2 0x412 JUMP JUMPDEST PUSH0 SLOAD PUSH1 0x1 PUSH1 0x1 PUSH1 0xA0 SHL SUB AND CALLER EQ PUSH2 0xE16 JUMPI PUSH1 0x40 MLOAD PUSH3 0x461BCD PUSH1 0xE5 SHL DUP2 MSTORE PUSH1 0x4 ADD PUSH2 0x47F SWAP1 PUSH2 0x121F JUMP JUMPDEST PUSH1 0x1 PUSH1 0x1 PUSH1 0xA0 SHL SUB DUP3 AND PUSH0 DUP2 DUP2 MSTORE PUSH1 0x2 PUSH1 0x20 SWAP1 DUP2 MSTORE PUSH1 0x40 SWAP2 DUP3 SWAP1 KECCAK256 DUP1 SLOAD PUSH1 0xFF NOT AND DUP6 ISZERO ISZERO SWAP1 DUP2 OR SWAP1 SWAP2 SSTORE SWAP2 MLOAD SWAP2 DUP3 MSTORE PUSH32 0x2444FB0D1FE84B2795E40013E1C54A31C773BFD08C00B4E63B8DD7FCE04B5D00 SWAP2 ADD PUSH1 0x40 MLOAD DUP1 SWAP2 SUB SWAP1 LOG2 POP POP JUMP JUMPDEST PUSH0 SLOAD PUSH1 0x1 PUSH1 0x1 PUSH1 0xA0 SHL SUB AND CALLER EQ PUSH2 0xE9D JUMPI PUSH1 0x40 MLOAD PUSH3 0x461BCD PUSH1 0xE5 SHL DUP2 MSTORE PUSH1 0x4 ADD PUSH2 0x47F SWAP1 PUSH2 0x121F JUMP JUMPDEST PUSH1 0x1 PUSH1 0x1 PUSH1 0xA0 SHL SUB DUP2 AND PUSH2 0xEC3 JUMPI PUSH1 0x40 MLOAD PUSH3 0x461BCD PUSH1 0xE5 SHL DUP2 MSTORE PUSH1 0x4 ADD PUSH2 0x47F SWAP1 PUSH2 0x1242 JUMP JUMPDEST PUSH1 0x1 SLOAD PUSH1 0x40 MLOAD PUSH1 0x1 PUSH1 0x1 PUSH1 0xA0 SHL SUB DUP1 DUP5 AND SWAP3 AND SWAP1 PUSH32 0x344B985461C99963C8A6EB84C2DE53A4F44831A78E94FAC76F71F00D3A6E8E4C SWAP1 PUSH0 SWAP1 LOG3 PUSH1 0x1 DUP1 SLOAD PUSH1 0x1 PUSH1 0x1 PUSH1 0xA0 SHL SUB NOT AND PUSH1 0x1 PUSH1 0x1 PUSH1 0xA0 SHL SUB SWAP3 SWAP1 SWAP3 AND SWAP2 SWAP1 SWAP2 OR SWAP1 SSTORE JUMP JUMPDEST PUSH1 0x40 MLOAD PUSH4 0x6EB1769F PUSH1 0xE1 SHL DUP2 MSTORE ADDRESS PUSH1 0x4 DUP3 ADD MSTORE PUSH1 0x1 PUSH1 0x1 PUSH1 0xA0 SHL SUB DUP4 DUP2 AND PUSH1 0x24 DUP4 ADD MSTORE DUP5 SWAP2 PUSH0 SWAP2 DUP4 AND SWAP1 PUSH4 0xDD62ED3E SWAP1 PUSH1 0x44 ADD PUSH1 0x20 PUSH1 0x40 MLOAD DUP1 DUP4 SUB DUP2 DUP7 GAS STATICCALL ISZERO DUP1 ISZERO PUSH2 0xF6C JUMPI RETURNDATASIZE PUSH0 DUP1 RETURNDATACOPY RETURNDATASIZE PUSH0 REVERT JUMPDEST POP POP POP POP PUSH1 0x40 MLOAD RETURNDATASIZE PUSH1 0x1F NOT PUSH1 0x1F DUP3 ADD AND DUP3 ADD DUP1 PUSH1 0x40 MSTORE POP DUP2 ADD SWAP1 PUSH2 0xF90 SWAP2 SWAP1 PUSH2 0x1208 JUMP JUMPDEST SWAP1 POP DUP1 ISZERO PUSH2 0x1048 JUMPI PUSH1 0x40 MLOAD PUSH4 0x95EA7B3 PUSH1 0xE0 SHL DUP2 MSTORE PUSH1 0x1 PUSH1 0x1 PUSH1 0xA0 SHL SUB DUP6 DUP2 AND PUSH1 0x4 DUP4 ADD MSTORE PUSH0 PUSH1 0x24 DUP4 ADD MSTORE DUP4 AND SWAP1 PUSH4 0x95EA7B3 SWAP1 PUSH1 0x44 ADD PUSH1 0x20 PUSH1 0x40 MLOAD DUP1 DUP4 SUB DUP2 PUSH0 DUP8 GAS CALL ISZERO DUP1 ISZERO PUSH2 0xFE3 JUMPI RETURNDATASIZE PUSH0 DUP1 RETURNDATACOPY RETURNDATASIZE PUSH0 REVERT JUMPDEST POP POP POP POP PUSH1 0x40 MLOAD RETURNDATASIZE PUSH1 0x1F NOT PUSH1 0x1F DUP3 ADD AND DUP3 ADD DUP1 PUSH1 0x40 MSTORE POP DUP2 ADD SWAP1 PUSH2 0x1007 SWAP2 SWAP1 PUSH2 0x128B JUMP JUMPDEST PUSH2 0x1048 JUMPI PUSH1 0x40 MLOAD PUSH3 0x461BCD PUSH1 0xE5 SHL DUP2 MSTORE PUSH1 0x20 PUSH1 0x4 DUP3 ADD MSTORE PUSH1 0x12 PUSH1 0x24 DUP3 ADD MSTORE PUSH18 0x185C1C1C9BDD99481C995CD95D0819985A5B PUSH1 0x72 SHL PUSH1 0x44 DUP3 ADD MSTORE PUSH1 0x64 ADD PUSH2 0x47F JUMP JUMPDEST PUSH1 0x40 MLOAD PUSH4 0x95EA7B3 PUSH1 0xE0 SHL DUP2 MSTORE PUSH1 0x1 PUSH1 0x1 PUSH1 0xA0 SHL SUB DUP6 DUP2 AND PUSH1 0x4 DUP4 ADD MSTORE PUSH1 0x24 DUP3 ADD DUP6 SWAP1 MSTORE DUP4 AND SWAP1 PUSH4 0x95EA7B3 SWAP1 PUSH1 0x44 ADD PUSH1 0x20 PUSH1 0x40 MLOAD DUP1 DUP4 SUB DUP2 PUSH0 DUP8 GAS CALL ISZERO DUP1 ISZERO PUSH2 0x1094 JUMPI RETURNDATASIZE PUSH0 DUP1 RETURNDATACOPY RETURNDATASIZE PUSH0 REVERT JUMPDEST POP POP POP POP PUSH1 0x40 MLOAD RETURNDATASIZE PUSH1 0x1F NOT PUSH1 0x1F DUP3 ADD AND DUP3 ADD DUP1 PUSH1 0x40 MSTORE POP DUP2 ADD SWAP1 PUSH2 0x10B8 SWAP2 SWAP1 PUSH2 0x128B JUMP JUMPDEST PUSH2 0x10F3 JUMPI PUSH1 0x40 MLOAD PUSH3 0x461BCD PUSH1 0xE5 SHL DUP2 MSTORE PUSH1 0x20 PUSH1 0x4 DUP3 ADD MSTORE PUSH1 0xC PUSH1 0x24 DUP3 ADD MSTORE PUSH12 0x185C1C1C9BDD994819985A5B PUSH1 0xA2 SHL PUSH1 0x44 DUP3 ADD MSTORE PUSH1 0x64 ADD PUSH2 0x47F JUMP JUMPDEST POP POP POP POP POP JUMP JUMPDEST DUP1 CALLDATALOAD PUSH1 0x1 PUSH1 0x1 PUSH1 0xA0 SHL SUB DUP2 AND DUP2 EQ PUSH2 0x1110 JUMPI PUSH0 DUP1 REVERT JUMPDEST SWAP2 SWAP1 POP JUMP JUMPDEST PUSH0 PUSH1 0x20 DUP3 DUP5 SUB SLT ISZERO PUSH2 0x1125 JUMPI PUSH0 DUP1 REVERT JUMPDEST PUSH2 0x112E DUP3 PUSH2 0x10FA JUMP JUMPDEST SWAP4 SWAP3 POP POP POP JUMP JUMPDEST PUSH0 DUP1 PUSH0 DUP1 PUSH0 PUSH1 0xA0 DUP7 DUP9 SUB SLT ISZERO PUSH2 0x1149 JUMPI PUSH0 DUP1 REVERT JUMPDEST POP POP DUP4 CALLDATALOAD SWAP6 PUSH1 0x20 DUP6 ADD CALLDATALOAD SWAP6 POP PUSH1 0x40 DUP6 ADD CALLDATALOAD SWAP5 PUSH1 0x60 DUP2 ADD CALLDATALOAD SWAP5 POP PUSH1 0x80 ADD CALLDATALOAD SWAP3 POP SWAP1 POP JUMP JUMPDEST PUSH0 DUP1 PUSH0 DUP1 PUSH1 0x80 DUP6 DUP8 SUB SLT ISZERO PUSH2 0x117F JUMPI PUSH0 DUP1 REVERT JUMPDEST POP POP DUP3 CALLDATALOAD SWAP5 PUSH1 0x20 DUP5 ADD CALLDATALOAD SWAP5 POP PUSH1 0x40 DUP5 ADD CALLDATALOAD SWAP4 PUSH1 0x60 ADD CALLDATALOAD SWAP3 POP SWAP1 POP JUMP JUMPDEST PUSH0 DUP1 PUSH1 0x40 DUP4 DUP6 SUB SLT ISZERO PUSH2 0x11AC JUMPI PUSH0 DUP1 REVERT JUMPDEST PUSH2 0x11B5 DUP4 PUSH2 0x10FA JUMP JUMPDEST SWAP5 PUSH1 0x20 SWAP4 SWAP1 SWAP4 ADD CALLDATALOAD SWAP4 POP POP POP JUMP JUMPDEST DUP1 ISZERO ISZERO DUP2 EQ PUSH2 0x11D0 JUMPI PUSH0 DUP1 REVERT JUMPDEST POP JUMP JUMPDEST PUSH0 DUP1 PUSH1 0x40 DUP4 DUP6 SUB SLT ISZERO PUSH2 0x11E4 JUMPI PUSH0 DUP1 REVERT JUMPDEST PUSH2 0x11ED DUP4 PUSH2 0x10FA JUMP JUMPDEST SWAP2 POP PUSH1 0x20 DUP4 ADD CALLDATALOAD PUSH2 0x11FD DUP2 PUSH2 0x11C3 JUMP JUMPDEST DUP1 SWAP2 POP POP SWAP3 POP SWAP3 SWAP1 POP JUMP JUMPDEST PUSH0 PUSH1 0x20 DUP3 DUP5 SUB SLT ISZERO PUSH2 0x1218 JUMPI PUSH0 DUP1 REVERT JUMPDEST POP MLOAD SWAP2 SWAP1 POP JUMP JUMPDEST PUSH1 0x20 DUP1 DUP3 MSTORE PUSH1 0x9 SWAP1 DUP3 ADD MSTORE PUSH9 0x3737BA1037BBB732B9 PUSH1 0xB9 SHL PUSH1 0x40 DUP3 ADD MSTORE PUSH1 0x60 ADD SWAP1 JUMP JUMPDEST PUSH1 0x20 DUP1 DUP3 MSTORE PUSH1 0x4 SWAP1 DUP3 ADD MSTORE PUSH4 0x7A65726F PUSH1 0xE0 SHL PUSH1 0x40 DUP3 ADD MSTORE PUSH1 0x60 ADD SWAP1 JUMP JUMPDEST PUSH0 DUP1 PUSH0 PUSH1 0x60 DUP5 DUP7 SUB SLT ISZERO PUSH2 0x1272 JUMPI PUSH0 DUP1 REVERT JUMPDEST DUP4 MLOAD SWAP3 POP PUSH1 0x20 DUP5 ADD MLOAD SWAP2 POP PUSH1 0x40 DUP5 ADD MLOAD SWAP1 POP SWAP3 POP SWAP3 POP SWAP3 JUMP JUMPDEST PUSH0 PUSH1 0x20 DUP3 DUP5 SUB SLT ISZERO PUSH2 0x129B JUMPI PUSH0 DUP1 REVERT JUMPDEST DUP2 MLOAD PUSH2 0x112E DUP2 PUSH2 0x11C3 JUMP INVALID LOG2 PUSH5 0x6970667358 0x22 SLT KECCAK256 0x4D DUP11 0xA7 0xD3 INVALID MCOPY PUSH25 0x14D0863354AC28F566C65F465D54BDAD978F2069F4C11F04BA PUSH5 0x736F6C6343 STOP ADDMOD XOR STOP CALLER "},"methodIdentifiers":{"GAD()":"81f5aefc","ROUTER()":"32fe7b26","USDT()":"c54e44eb","WBNB()":"8dd95002","addLiquidityGadBnb(uint256,uint256,uint256,uint256)":"26b0064e","addLiquidityGadUsdt(uint256,uint256,uint256,uint256,uint256)":"18444401","allowedDepositors(address)":"483c2ef0","bnbBalance()":"d013cbe2","depositBNB()":"42220f34","depositToken(address,uint256)":"338b5dea","gadBalance()":"0bdcaadf","lpReceiver()":"1f0c57fc","owner()":"8da5cb5b","setDepositor(address,bool)":"6f860d74","setLpReceiver(address)":"ad8f3467","setOwner(address)":"13af4035","usdtBalance()":"482edb07"}}}}}