{
  "_format": "hh3-artifact-1",
  "contractName": "NFT721",
  "sourceName": "src/NFT721.sol",
  "abi": [
    {
      "inputs": [
        {
          "internalType": "string",
          "name": "name_",
          "type": "string"
        },
        {
          "internalType": "string",
          "name": "symbol_",
          "type": "string"
        },
        {
          "internalType": "address",
          "name": "admin_",
          "type": "address"
        },
        {
          "internalType": "address",
          "name": "_royaltyReceiver",
          "type": "address"
        },
        {
          "internalType": "uint96",
          "name": "_royaltyBps",
          "type": "uint96"
        },
        {
          "internalType": "address",
          "name": "vault_",
          "type": "address"
        }
      ],
      "stateMutability": "nonpayable",
      "type": "constructor"
    },
    {
      "anonymous": false,
      "inputs": [
        {
          "indexed": true,
          "internalType": "address",
          "name": "owner",
          "type": "address"
        },
        {
          "indexed": true,
          "internalType": "address",
          "name": "approved",
          "type": "address"
        },
        {
          "indexed": true,
          "internalType": "uint256",
          "name": "tokenId",
          "type": "uint256"
        }
      ],
      "name": "Approval",
      "type": "event"
    },
    {
      "anonymous": false,
      "inputs": [
        {
          "indexed": true,
          "internalType": "address",
          "name": "owner",
          "type": "address"
        },
        {
          "indexed": true,
          "internalType": "address",
          "name": "operator",
          "type": "address"
        },
        {
          "indexed": false,
          "internalType": "bool",
          "name": "approved",
          "type": "bool"
        }
      ],
      "name": "ApprovalForAll",
      "type": "event"
    },
    {
      "anonymous": false,
      "inputs": [
        {
          "indexed": false,
          "internalType": "uint256",
          "name": "_fromTokenId",
          "type": "uint256"
        },
        {
          "indexed": false,
          "internalType": "uint256",
          "name": "_toTokenId",
          "type": "uint256"
        }
      ],
      "name": "BatchMetadataUpdate",
      "type": "event"
    },
    {
      "anonymous": false,
      "inputs": [
        {
          "indexed": false,
          "internalType": "uint256",
          "name": "_tokenId",
          "type": "uint256"
        }
      ],
      "name": "MetadataUpdate",
      "type": "event"
    },
    {
      "anonymous": false,
      "inputs": [
        {
          "indexed": false,
          "internalType": "uint256",
          "name": "oldFee",
          "type": "uint256"
        },
        {
          "indexed": false,
          "internalType": "uint256",
          "name": "newFee",
          "type": "uint256"
        }
      ],
      "name": "MintFeeChanged",
      "type": "event"
    },
    {
      "anonymous": false,
      "inputs": [
        {
          "indexed": true,
          "internalType": "address",
          "name": "to",
          "type": "address"
        },
        {
          "indexed": true,
          "internalType": "uint256",
          "name": "tokenId",
          "type": "uint256"
        },
        {
          "indexed": false,
          "internalType": "string",
          "name": "tokenURI",
          "type": "string"
        }
      ],
      "name": "Minted",
      "type": "event"
    },
    {
      "anonymous": false,
      "inputs": [
        {
          "indexed": false,
          "internalType": "address",
          "name": "account",
          "type": "address"
        }
      ],
      "name": "Paused",
      "type": "event"
    },
    {
      "anonymous": false,
      "inputs": [
        {
          "indexed": true,
          "internalType": "bytes32",
          "name": "role",
          "type": "bytes32"
        },
        {
          "indexed": true,
          "internalType": "bytes32",
          "name": "previousAdminRole",
          "type": "bytes32"
        },
        {
          "indexed": true,
          "internalType": "bytes32",
          "name": "newAdminRole",
          "type": "bytes32"
        }
      ],
      "name": "RoleAdminChanged",
      "type": "event"
    },
    {
      "anonymous": false,
      "inputs": [
        {
          "indexed": true,
          "internalType": "bytes32",
          "name": "role",
          "type": "bytes32"
        },
        {
          "indexed": true,
          "internalType": "address",
          "name": "account",
          "type": "address"
        },
        {
          "indexed": true,
          "internalType": "address",
          "name": "sender",
          "type": "address"
        }
      ],
      "name": "RoleGranted",
      "type": "event"
    },
    {
      "anonymous": false,
      "inputs": [
        {
          "indexed": true,
          "internalType": "bytes32",
          "name": "role",
          "type": "bytes32"
        },
        {
          "indexed": true,
          "internalType": "address",
          "name": "account",
          "type": "address"
        },
        {
          "indexed": true,
          "internalType": "address",
          "name": "sender",
          "type": "address"
        }
      ],
      "name": "RoleRevoked",
      "type": "event"
    },
    {
      "anonymous": false,
      "inputs": [
        {
          "indexed": false,
          "internalType": "address",
          "name": "receiver",
          "type": "address"
        },
        {
          "indexed": false,
          "internalType": "uint96",
          "name": "bps",
          "type": "uint96"
        }
      ],
      "name": "RoyaltyChanged",
      "type": "event"
    },
    {
      "anonymous": false,
      "inputs": [
        {
          "indexed": true,
          "internalType": "address",
          "name": "from",
          "type": "address"
        },
        {
          "indexed": true,
          "internalType": "address",
          "name": "to",
          "type": "address"
        },
        {
          "indexed": true,
          "internalType": "uint256",
          "name": "tokenId",
          "type": "uint256"
        }
      ],
      "name": "Transfer",
      "type": "event"
    },
    {
      "anonymous": false,
      "inputs": [
        {
          "indexed": false,
          "internalType": "address",
          "name": "account",
          "type": "address"
        }
      ],
      "name": "Unpaused",
      "type": "event"
    },
    {
      "anonymous": false,
      "inputs": [
        {
          "indexed": true,
          "internalType": "address",
          "name": "oldVault",
          "type": "address"
        },
        {
          "indexed": true,
          "internalType": "address",
          "name": "newVault",
          "type": "address"
        }
      ],
      "name": "VaultChanged",
      "type": "event"
    },
    {
      "inputs": [],
      "name": "DEFAULT_ADMIN_ROLE",
      "outputs": [
        {
          "internalType": "bytes32",
          "name": "",
          "type": "bytes32"
        }
      ],
      "stateMutability": "view",
      "type": "function"
    },
    {
      "inputs": [],
      "name": "MINTER_ROLE",
      "outputs": [
        {
          "internalType": "bytes32",
          "name": "",
          "type": "bytes32"
        }
      ],
      "stateMutability": "view",
      "type": "function"
    },
    {
      "inputs": [
        {
          "internalType": "address",
          "name": "to",
          "type": "address"
        },
        {
          "internalType": "uint256",
          "name": "tokenId",
          "type": "uint256"
        }
      ],
      "name": "approve",
      "outputs": [],
      "stateMutability": "nonpayable",
      "type": "function"
    },
    {
      "inputs": [
        {
          "internalType": "address",
          "name": "owner",
          "type": "address"
        }
      ],
      "name": "balanceOf",
      "outputs": [
        {
          "internalType": "uint256",
          "name": "",
          "type": "uint256"
        }
      ],
      "stateMutability": "view",
      "type": "function"
    },
    {
      "inputs": [
        {
          "internalType": "uint256",
          "name": "tokenId",
          "type": "uint256"
        }
      ],
      "name": "getApproved",
      "outputs": [
        {
          "internalType": "address",
          "name": "",
          "type": "address"
        }
      ],
      "stateMutability": "view",
      "type": "function"
    },
    {
      "inputs": [
        {
          "internalType": "bytes32",
          "name": "role",
          "type": "bytes32"
        }
      ],
      "name": "getRoleAdmin",
      "outputs": [
        {
          "internalType": "bytes32",
          "name": "",
          "type": "bytes32"
        }
      ],
      "stateMutability": "view",
      "type": "function"
    },
    {
      "inputs": [
        {
          "internalType": "bytes32",
          "name": "role",
          "type": "bytes32"
        },
        {
          "internalType": "address",
          "name": "account",
          "type": "address"
        }
      ],
      "name": "grantRole",
      "outputs": [],
      "stateMutability": "nonpayable",
      "type": "function"
    },
    {
      "inputs": [
        {
          "internalType": "bytes32",
          "name": "role",
          "type": "bytes32"
        },
        {
          "internalType": "address",
          "name": "account",
          "type": "address"
        }
      ],
      "name": "hasRole",
      "outputs": [
        {
          "internalType": "bool",
          "name": "",
          "type": "bool"
        }
      ],
      "stateMutability": "view",
      "type": "function"
    },
    {
      "inputs": [
        {
          "internalType": "address",
          "name": "owner",
          "type": "address"
        },
        {
          "internalType": "address",
          "name": "operator",
          "type": "address"
        }
      ],
      "name": "isApprovedForAll",
      "outputs": [
        {
          "internalType": "bool",
          "name": "",
          "type": "bool"
        }
      ],
      "stateMutability": "view",
      "type": "function"
    },
    {
      "inputs": [],
      "name": "mintFeeWei",
      "outputs": [
        {
          "internalType": "uint256",
          "name": "",
          "type": "uint256"
        }
      ],
      "stateMutability": "view",
      "type": "function"
    },
    {
      "inputs": [
        {
          "internalType": "address",
          "name": "to",
          "type": "address"
        },
        {
          "internalType": "string",
          "name": "uri",
          "type": "string"
        }
      ],
      "name": "mintWithFee",
      "outputs": [
        {
          "internalType": "uint256",
          "name": "",
          "type": "uint256"
        }
      ],
      "stateMutability": "payable",
      "type": "function"
    },
    {
      "inputs": [],
      "name": "name",
      "outputs": [
        {
          "internalType": "string",
          "name": "",
          "type": "string"
        }
      ],
      "stateMutability": "view",
      "type": "function"
    },
    {
      "inputs": [
        {
          "internalType": "uint256",
          "name": "tokenId",
          "type": "uint256"
        }
      ],
      "name": "ownerOf",
      "outputs": [
        {
          "internalType": "address",
          "name": "",
          "type": "address"
        }
      ],
      "stateMutability": "view",
      "type": "function"
    },
    {
      "inputs": [],
      "name": "pause",
      "outputs": [],
      "stateMutability": "nonpayable",
      "type": "function"
    },
    {
      "inputs": [],
      "name": "paused",
      "outputs": [
        {
          "internalType": "bool",
          "name": "",
          "type": "bool"
        }
      ],
      "stateMutability": "view",
      "type": "function"
    },
    {
      "inputs": [
        {
          "internalType": "bytes32",
          "name": "role",
          "type": "bytes32"
        },
        {
          "internalType": "address",
          "name": "account",
          "type": "address"
        }
      ],
      "name": "renounceRole",
      "outputs": [],
      "stateMutability": "nonpayable",
      "type": "function"
    },
    {
      "inputs": [
        {
          "internalType": "bytes32",
          "name": "role",
          "type": "bytes32"
        },
        {
          "internalType": "address",
          "name": "account",
          "type": "address"
        }
      ],
      "name": "revokeRole",
      "outputs": [],
      "stateMutability": "nonpayable",
      "type": "function"
    },
    {
      "inputs": [
        {
          "internalType": "uint256",
          "name": "",
          "type": "uint256"
        },
        {
          "internalType": "uint256",
          "name": "salePrice",
          "type": "uint256"
        }
      ],
      "name": "royaltyInfo",
      "outputs": [
        {
          "internalType": "address",
          "name": "",
          "type": "address"
        },
        {
          "internalType": "uint256",
          "name": "",
          "type": "uint256"
        }
      ],
      "stateMutability": "view",
      "type": "function"
    },
    {
      "inputs": [
        {
          "internalType": "address",
          "name": "from",
          "type": "address"
        },
        {
          "internalType": "address",
          "name": "to",
          "type": "address"
        },
        {
          "internalType": "uint256",
          "name": "tokenId",
          "type": "uint256"
        }
      ],
      "name": "safeTransferFrom",
      "outputs": [],
      "stateMutability": "nonpayable",
      "type": "function"
    },
    {
      "inputs": [
        {
          "internalType": "address",
          "name": "from",
          "type": "address"
        },
        {
          "internalType": "address",
          "name": "to",
          "type": "address"
        },
        {
          "internalType": "uint256",
          "name": "tokenId",
          "type": "uint256"
        },
        {
          "internalType": "bytes",
          "name": "data",
          "type": "bytes"
        }
      ],
      "name": "safeTransferFrom",
      "outputs": [],
      "stateMutability": "nonpayable",
      "type": "function"
    },
    {
      "inputs": [
        {
          "internalType": "address",
          "name": "operator",
          "type": "address"
        },
        {
          "internalType": "bool",
          "name": "approved",
          "type": "bool"
        }
      ],
      "name": "setApprovalForAll",
      "outputs": [],
      "stateMutability": "nonpayable",
      "type": "function"
    },
    {
      "inputs": [
        {
          "internalType": "uint256",
          "name": "fee",
          "type": "uint256"
        }
      ],
      "name": "setMintFeeWei",
      "outputs": [],
      "stateMutability": "nonpayable",
      "type": "function"
    },
    {
      "inputs": [
        {
          "internalType": "address",
          "name": "receiver",
          "type": "address"
        },
        {
          "internalType": "uint96",
          "name": "bps",
          "type": "uint96"
        }
      ],
      "name": "setRoyalty",
      "outputs": [],
      "stateMutability": "nonpayable",
      "type": "function"
    },
    {
      "inputs": [
        {
          "internalType": "address",
          "name": "v",
          "type": "address"
        }
      ],
      "name": "setVault",
      "outputs": [],
      "stateMutability": "nonpayable",
      "type": "function"
    },
    {
      "inputs": [
        {
          "internalType": "bytes4",
          "name": "iid",
          "type": "bytes4"
        }
      ],
      "name": "supportsInterface",
      "outputs": [
        {
          "internalType": "bool",
          "name": "",
          "type": "bool"
        }
      ],
      "stateMutability": "view",
      "type": "function"
    },
    {
      "inputs": [],
      "name": "symbol",
      "outputs": [
        {
          "internalType": "string",
          "name": "",
          "type": "string"
        }
      ],
      "stateMutability": "view",
      "type": "function"
    },
    {
      "inputs": [],
      "name": "tokenIdTracker",
      "outputs": [
        {
          "internalType": "uint256",
          "name": "",
          "type": "uint256"
        }
      ],
      "stateMutability": "view",
      "type": "function"
    },
    {
      "inputs": [
        {
          "internalType": "uint256",
          "name": "tokenId",
          "type": "uint256"
        }
      ],
      "name": "tokenURI",
      "outputs": [
        {
          "internalType": "string",
          "name": "",
          "type": "string"
        }
      ],
      "stateMutability": "view",
      "type": "function"
    },
    {
      "inputs": [
        {
          "internalType": "address",
          "name": "from",
          "type": "address"
        },
        {
          "internalType": "address",
          "name": "to",
          "type": "address"
        },
        {
          "internalType": "uint256",
          "name": "tokenId",
          "type": "uint256"
        }
      ],
      "name": "transferFrom",
      "outputs": [],
      "stateMutability": "nonpayable",
      "type": "function"
    },
    {
      "inputs": [],
      "name": "unpause",
      "outputs": [],
      "stateMutability": "nonpayable",
      "type": "function"
    },
    {
      "inputs": [],
      "name": "vault",
      "outputs": [
        {
          "internalType": "contract ILiquidityVault",
          "name": "",
          "type": "address"
        }
      ],
      "stateMutability": "view",
      "type": "function"
    }
  ],
  "bytecode": "0x608060405266038d7ea4c68000600b553480156200001b575f80fd5b50604051620027d3380380620027d38339810160408190526200003e9162000242565b85855f6200004d838262000386565b5060016200005c828262000386565b50506008805460ff1916905550620000755f85620000c2565b60088054610100600160a81b0319166101006001600160a01b03958616021790556001600160601b039091166c010000000000000000000000009190921602176009555062000452915050565b5f8281526007602090815260408083206001600160a01b038516845290915290205460ff1662000161575f8281526007602090815260408083206001600160a01b03851684529091529020805460ff19166001179055620001203390565b6001600160a01b0316816001600160a01b0316837f2f8788117e7eff1d82e926ec794901d17c78024a50270940304540a733656f0d60405160405180910390a45b5050565b634e487b7160e01b5f52604160045260245ffd5b5f82601f83011262000189575f80fd5b81516001600160401b0380821115620001a657620001a662000165565b604051601f8301601f19908116603f01168101908282118183101715620001d157620001d162000165565b8160405283815260209250866020858801011115620001ee575f80fd5b5f91505b83821015620002115785820183015181830184015290820190620001f2565b5f602085830101528094505050505092915050565b80516001600160a01b03811681146200023d575f80fd5b919050565b5f805f805f8060c0878903121562000258575f80fd5b86516001600160401b03808211156200026f575f80fd5b6200027d8a838b0162000179565b9750602089015191508082111562000293575f80fd5b50620002a289828a0162000179565b955050620002b36040880162000226565b9350620002c36060880162000226565b60808801519093506001600160601b0381168114620002e0575f80fd5b9150620002f060a0880162000226565b90509295509295509295565b600181811c908216806200031157607f821691505b6020821081036200033057634e487b7160e01b5f52602260045260245ffd5b50919050565b601f8211156200038157805f5260205f20601f840160051c810160208510156200035d5750805b601f840160051c820191505b818110156200037e575f815560010162000369565b50505b505050565b81516001600160401b03811115620003a257620003a262000165565b620003ba81620003b38454620002fc565b8462000336565b602080601f831160018114620003f0575f8415620003d85750858301515b5f19600386901b1c1916600185901b1785556200044a565b5f85815260208120601f198616915b828110156200042057888601518255948401946001909101908401620003ff565b50858210156200043e57878501515f19600388901b60f8161c191681555b505060018460011b0185555b505050505050565b61237380620004605f395ff3fe6080604052600436106101d0575f3560e01c80636352211e116100fd578063a22cb46511610092578063d547741f11610062578063d547741f14610551578063e985e9c514610570578063fbfa77cf146105b7578063fdbd394f146105dd575f80fd5b8063a22cb465146104c1578063b88d4fde146104e0578063c87b56dd146104ff578063d53913931461051e575f80fd5b80638f2fc60b116100cd5780638f2fc60b1461045c57806391d148541461047b57806395d89b411461049a578063a217fddf146104ae575f80fd5b80636352211e146103eb5780636817031b1461040a57806370a08231146104295780638456cb5914610448575f80fd5b806323b872dd1161017357806336568abe1161014357806336568abe146103825780633f4ba83a146103a157806342842e0e146103b55780635c975abb146103d4575f80fd5b806323b872dd146102d8578063248a9ca3146102f75780632a55205a146103255780632f2ff15d14610363575f80fd5b806306fdde03116101ae57806306fdde0314610240578063081812fc14610261578063095ea7b31461029857806310e6d3ba146102b9575f80fd5b806301ffc9a7146101d457806302bf3d5614610208578063062205341461022b575b5f80fd5b3480156101df575f80fd5b506101f36101ee366004611c1d565b6105f0565b60405190151581526020015b60405180910390f35b348015610213575f80fd5b5061021d600a5481565b6040519081526020016101ff565b348015610236575f80fd5b5061021d600b5481565b34801561024b575f80fd5b5061025461061a565b6040516101ff9190611c85565b34801561026c575f80fd5b5061028061027b366004611c97565b6106a9565b6040516001600160a01b0390911681526020016101ff565b3480156102a3575f80fd5b506102b76102b2366004611cc9565b6106ce565b005b3480156102c4575f80fd5b506102b76102d3366004611c97565b6107e7565b3480156102e3575f80fd5b506102b76102f2366004611cf1565b610833565b348015610302575f80fd5b5061021d610311366004611c97565b5f9081526007602052604090206001015490565b348015610330575f80fd5b5061034461033f366004611d2a565b610864565b604080516001600160a01b0390931683526020830191909152016101ff565b34801561036e575f80fd5b506102b761037d366004611d4a565b6108aa565b34801561038d575f80fd5b506102b761039c366004611d4a565b6108ce565b3480156103ac575f80fd5b506102b761094c565b3480156103c0575f80fd5b506102b76103cf366004611cf1565b610961565b3480156103df575f80fd5b5060085460ff166101f3565b3480156103f6575f80fd5b50610280610405366004611c97565b61097b565b348015610415575f80fd5b506102b7610424366004611d74565b6109da565b348015610434575f80fd5b5061021d610443366004611d74565b610a4d565b348015610453575f80fd5b506102b7610ad1565b348015610467575f80fd5b506102b7610476366004611d8d565b610ae3565b348015610486575f80fd5b506101f3610495366004611d4a565b610b75565b3480156104a5575f80fd5b50610254610b9f565b3480156104b9575f80fd5b5061021d5f81565b3480156104cc575f80fd5b506102b76104db366004611dcd565b610bae565b3480156104eb575f80fd5b506102b76104fa366004611e82565b610bb9565b34801561050a575f80fd5b50610254610519366004611c97565b610bf1565b348015610529575f80fd5b5061021d7f9f2df0fed2c77648de5860a4cc508cd0818c85b8b8a1ab4ceeef8d981c8956a681565b34801561055c575f80fd5b506102b761056b366004611d4a565b610cfb565b34801561057b575f80fd5b506101f361058a366004611ef9565b6001600160a01b039182165f90815260056020908152604080832093909416825291909152205460ff1690565b3480156105c2575f80fd5b5060095461028090600160601b90046001600160a01b031681565b61021d6105eb366004611f21565b610d1f565b5f6001600160e01b0319821663152a902d60e11b1480610614575061061482610e42565b92915050565b60605f805461062890611f7f565b80601f016020809104026020016040519081016040528092919081815260200182805461065490611f7f565b801561069f5780601f106106765761010080835404028352916020019161069f565b820191905f5260205f20905b81548152906001019060200180831161068257829003601f168201915b5050505050905090565b5f6106b382610e66565b505f908152600460205260409020546001600160a01b031690565b5f6106d88261097b565b9050806001600160a01b0316836001600160a01b03160361074a5760405162461bcd60e51b815260206004820152602160248201527f4552433732313a20617070726f76616c20746f2063757272656e74206f776e656044820152603960f91b60648201526084015b60405180910390fd5b336001600160a01b03821614806107665750610766813361058a565b6107d85760405162461bcd60e51b815260206004820152603d60248201527f4552433732313a20617070726f76652063616c6c6572206973206e6f7420746f60448201527f6b656e206f776e6572206f7220617070726f76656420666f7220616c6c0000006064820152608401610741565b6107e28383610ec4565b505050565b5f6107f181610f31565b600b5460408051918252602082018490527fd8f648a37e4afe1c401d97caaa06358d2e2725ac008214ce9f5497991e654396910160405180910390a150600b55565b61083d3382610f3b565b6108595760405162461bcd60e51b815260040161074190611fb7565b6107e2838383610fb7565b6009545f908190819061271090610884906001600160601b031686612018565b61088e919061202f565b60085461010090046001600160a01b0316969095509350505050565b5f828152600760205260409020600101546108c481610f31565b6107e28383611119565b6001600160a01b038116331461093e5760405162461bcd60e51b815260206004820152602f60248201527f416363657373436f6e74726f6c3a2063616e206f6e6c792072656e6f756e636560448201526e103937b632b9903337b91039b2b63360891b6064820152608401610741565b610948828261119e565b5050565b5f61095681610f31565b61095e611204565b50565b6107e283838360405180602001604052805f815250610bb9565b5f818152600260205260408120546001600160a01b0316806106145760405162461bcd60e51b8152602060048201526018602482015277115490cdcc8c4e881a5b9d985b1a59081d1bdad95b88125160421b6044820152606401610741565b5f6109e481610f31565b6009546040516001600160a01b0380851692600160601b900416907f16e2accad9173abff57b295b56993ec5d86b3cbf791fea02f02a6616463754ea905f90a350600980546001600160a01b03909216600160601b026001600160601b03909216919091179055565b5f6001600160a01b038216610ab65760405162461bcd60e51b815260206004820152602960248201527f4552433732313a2061646472657373207a65726f206973206e6f7420612076616044820152683634b21037bbb732b960b91b6064820152608401610741565b506001600160a01b03165f9081526003602052604090205490565b5f610adb81610f31565b61095e611256565b5f610aed81610f31565b60088054610100600160a81b0319166101006001600160a01b03861690810291909117909155600980546bffffffffffffffffffffffff19166001600160601b0385169081179091556040805192835260208301919091527f37523b98c1c6df523d38b204c981070f443e5d875f794f9e45c1cc8ab7b2cd4e910160405180910390a1505050565b5f9182526007602090815260408084206001600160a01b0393909316845291905290205460ff1690565b60606001805461062890611f7f565b610948338383611293565b610bc33383610f3b565b610bdf5760405162461bcd60e51b815260040161074190611fb7565b610beb84848484611360565b50505050565b6060610bfc82610e66565b5f8281526006602052604081208054610c1490611f7f565b80601f0160208091040260200160405190810160405280929190818152602001828054610c4090611f7f565b8015610c8b5780601f10610c6257610100808354040283529160200191610c8b565b820191905f5260205f20905b815481529060010190602001808311610c6e57829003601f168201915b505050505090505f610ca760408051602081019091525f815290565b905080515f03610cb8575092915050565b815115610cea578082604051602001610cd292919061204e565b60405160208183030381529060405292505050919050565b610cf384611393565b949350505050565b5f82815260076020526040902060010154610d1581610f31565b6107e2838361119e565b5f610d28611403565b600b54341015610d695760405162461bcd60e51b815260206004820152600c60248201526b199959481c995c5d5a5c995960a21b6044820152606401610741565b5f600a5f8154610d789061207c565b91829055509050610d89848261144b565b610d938184611464565b80846001600160a01b03167fe7cd4ce7f2a465edc730269a1305e8a48bad821e8fb7e152ec413829c01a53c485604051610dcd9190611c85565b60405180910390a36009600c9054906101000a90046001600160a01b03166001600160a01b03166342220f34346040518263ffffffff1660e01b81526004015f604051808303818588803b158015610e23575f80fd5b505af1158015610e35573d5f803e3d5ffd5b5093979650505050505050565b5f6001600160e01b03198216637965db0b60e01b148061061457506106148261152d565b5f818152600260205260409020546001600160a01b031661095e5760405162461bcd60e51b8152602060048201526018602482015277115490cdcc8c4e881a5b9d985b1a59081d1bdad95b88125160421b6044820152606401610741565b5f81815260046020526040902080546001600160a01b0319166001600160a01b0384169081179091558190610ef88261097b565b6001600160a01b03167f8c5be1e5ebec7d5bd14f71427d1e84f3dd0314c0f7b2291e5b200ac8c7c3b92560405160405180910390a45050565b61095e8133611551565b5f80610f468361097b565b9050806001600160a01b0316846001600160a01b03161480610f8c57506001600160a01b038082165f9081526005602090815260408083209388168352929052205460ff165b80610cf35750836001600160a01b0316610fa5846106a9565b6001600160a01b031614949350505050565b826001600160a01b0316610fca8261097b565b6001600160a01b031614610ff05760405162461bcd60e51b815260040161074190612094565b6001600160a01b0382166110525760405162461bcd60e51b8152602060048201526024808201527f4552433732313a207472616e7366657220746f20746865207a65726f206164646044820152637265737360e01b6064820152608401610741565b826001600160a01b03166110658261097b565b6001600160a01b03161461108b5760405162461bcd60e51b815260040161074190612094565b5f81815260046020908152604080832080546001600160a01b03199081169091556001600160a01b038781168086526003855283862080545f1901905590871680865283862080546001019055868652600290945282852080549092168417909155905184937fddf252ad1be2c89b69c2b068fc378daa952ba7f163c4a11628f55a4df523b3ef91a4505050565b6111238282610b75565b610948575f8281526007602090815260408083206001600160a01b03851684529091529020805460ff1916600117905561115a3390565b6001600160a01b0316816001600160a01b0316837f2f8788117e7eff1d82e926ec794901d17c78024a50270940304540a733656f0d60405160405180910390a45050565b6111a88282610b75565b15610948575f8281526007602090815260408083206001600160a01b0385168085529252808320805460ff1916905551339285917ff6391f5c32d9c69d2a47ea670b442974b53935d1edc7fd64eb21e047a839171b9190a45050565b61120c6115aa565b6008805460ff191690557f5db9ee0a495bf2e6ff9c91a7834c1ba4fdd244a5e8aa4e537bd38aeae4b073aa335b6040516001600160a01b03909116815260200160405180910390a1565b61125e611403565b6008805460ff191660011790557f62e78cea01bee320cd4e420270b5ea74000d11b0c9f74754ebdbfc544b05a2586112393390565b816001600160a01b0316836001600160a01b0316036112f45760405162461bcd60e51b815260206004820152601960248201527f4552433732313a20617070726f766520746f2063616c6c6572000000000000006044820152606401610741565b6001600160a01b038381165f81815260056020908152604080832094871680845294825291829020805460ff191686151590811790915591519182527f17307eab39ab6107e8899845ad3d59bd9653f200f220920489ca2b5937696c31910160405180910390a3505050565b61136b848484610fb7565b611377848484846115f3565b610beb5760405162461bcd60e51b8152600401610741906120d9565b606061139e82610e66565b5f6113b360408051602081019091525f815290565b90505f8151116113d15760405180602001604052805f8152506113fc565b806113db846116f0565b6040516020016113ec92919061204e565b6040516020818303038152906040525b9392505050565b60085460ff16156114495760405162461bcd60e51b815260206004820152601060248201526f14185d5cd8589b194e881c185d5cd95960821b6044820152606401610741565b565b610948828260405180602001604052805f815250611780565b5f828152600260205260409020546001600160a01b03166114de5760405162461bcd60e51b815260206004820152602e60248201527f45524337323155524953746f726167653a2055524920736574206f66206e6f6e60448201526d32bc34b9ba32b73a103a37b5b2b760911b6064820152608401610741565b5f8281526006602052604090206114f58282612176565b506040518281527ff8e1a15aba9398e019f0b49df1a4fde98ee17ae345cb5f6b5e2c27f5033e8ce79060200160405180910390a15050565b5f6001600160e01b03198216632483248360e11b14806106145750610614826117b2565b61155b8282610b75565b6109485761156881611801565b611573836020611813565b604051602001611584929190612236565b60408051601f198184030181529082905262461bcd60e51b825261074191600401611c85565b60085460ff166114495760405162461bcd60e51b815260206004820152601460248201527314185d5cd8589b194e881b9bdd081c185d5cd95960621b6044820152606401610741565b5f6001600160a01b0384163b156116e557604051630a85bd0160e11b81526001600160a01b0385169063150b7a02906116369033908990889088906004016122aa565b6020604051808303815f875af1925050508015611670575060408051601f3d908101601f1916820190925261166d918101906122e6565b60015b6116cb573d80801561169d576040519150601f19603f3d011682016040523d82523d5f602084013e6116a2565b606091505b5080515f036116c35760405162461bcd60e51b8152600401610741906120d9565b805181602001fd5b6001600160e01b031916630a85bd0160e11b149050610cf3565b506001949350505050565b60605f6116fc836119a9565b60010190505f8167ffffffffffffffff81111561171b5761171b611dfb565b6040519080825280601f01601f191660200182016040528015611745576020820181803683370190505b5090508181016020015b5f19016f181899199a1a9b1b9c1cb0b131b232b360811b600a86061a8153600a850494508461174f57509392505050565b61178a8383611a80565b6117965f8484846115f3565b6107e25760405162461bcd60e51b8152600401610741906120d9565b5f6001600160e01b031982166380ac58cd60e01b14806117e257506001600160e01b03198216635b5e139f60e01b145b8061061457506301ffc9a760e01b6001600160e01b0319831614610614565b60606106146001600160a01b03831660145b60605f611821836002612018565b61182c906002612301565b67ffffffffffffffff81111561184457611844611dfb565b6040519080825280601f01601f19166020018201604052801561186e576020820181803683370190505b509050600360fc1b815f8151811061188857611888612314565b60200101906001600160f81b03191690815f1a905350600f60fb1b816001815181106118b6576118b6612314565b60200101906001600160f81b03191690815f1a9053505f6118d8846002612018565b6118e3906001612301565b90505b600181111561195a576f181899199a1a9b1b9c1cb0b131b232b360811b85600f166010811061191757611917612314565b1a60f81b82828151811061192d5761192d612314565b60200101906001600160f81b03191690815f1a90535060049490941c9361195381612328565b90506118e6565b5083156113fc5760405162461bcd60e51b815260206004820181905260248201527f537472696e67733a20686578206c656e67746820696e73756666696369656e746044820152606401610741565b5f8072184f03e93ff9f4daa797ed6e38ed64bf6a1f0160401b83106119e75772184f03e93ff9f4daa797ed6e38ed64bf6a1f0160401b830492506040015b6d04ee2d6d415b85acef81000000008310611a13576d04ee2d6d415b85acef8100000000830492506020015b662386f26fc100008310611a3157662386f26fc10000830492506010015b6305f5e1008310611a49576305f5e100830492506008015b6127108310611a5d57612710830492506004015b60648310611a6f576064830492506002015b600a83106106145760010192915050565b6001600160a01b038216611ad65760405162461bcd60e51b815260206004820181905260248201527f4552433732313a206d696e7420746f20746865207a65726f20616464726573736044820152606401610741565b5f818152600260205260409020546001600160a01b031615611b3a5760405162461bcd60e51b815260206004820152601c60248201527f4552433732313a20746f6b656e20616c7265616479206d696e746564000000006044820152606401610741565b5f818152600260205260409020546001600160a01b031615611b9e5760405162461bcd60e51b815260206004820152601c60248201527f4552433732313a20746f6b656e20616c7265616479206d696e746564000000006044820152606401610741565b6001600160a01b0382165f81815260036020908152604080832080546001019055848352600290915280822080546001600160a01b0319168417905551839291907fddf252ad1be2c89b69c2b068fc378daa952ba7f163c4a11628f55a4df523b3ef908290a45050565b6001600160e01b03198116811461095e575f80fd5b5f60208284031215611c2d575f80fd5b81356113fc81611c08565b5f5b83811015611c52578181015183820152602001611c3a565b50505f910152565b5f8151808452611c71816020860160208601611c38565b601f01601f19169290920160200192915050565b602081525f6113fc6020830184611c5a565b5f60208284031215611ca7575f80fd5b5035919050565b80356001600160a01b0381168114611cc4575f80fd5b919050565b5f8060408385031215611cda575f80fd5b611ce383611cae565b946020939093013593505050565b5f805f60608486031215611d03575f80fd5b611d0c84611cae565b9250611d1a60208501611cae565b9150604084013590509250925092565b5f8060408385031215611d3b575f80fd5b50508035926020909101359150565b5f8060408385031215611d5b575f80fd5b82359150611d6b60208401611cae565b90509250929050565b5f60208284031215611d84575f80fd5b6113fc82611cae565b5f8060408385031215611d9e575f80fd5b611da783611cae565b915060208301356001600160601b0381168114611dc2575f80fd5b809150509250929050565b5f8060408385031215611dde575f80fd5b611de783611cae565b915060208301358015158114611dc2575f80fd5b634e487b7160e01b5f52604160045260245ffd5b5f67ffffffffffffffff80841115611e2957611e29611dfb565b604051601f8501601f19908116603f01168101908282118183101715611e5157611e51611dfb565b81604052809350858152868686011115611e69575f80fd5b858560208301375f602087830101525050509392505050565b5f805f8060808587031215611e95575f80fd5b611e9e85611cae565b9350611eac60208601611cae565b925060408501359150606085013567ffffffffffffffff811115611ece575f80fd5b8501601f81018713611ede575f80fd5b611eed87823560208401611e0f565b91505092959194509250565b5f8060408385031215611f0a575f80fd5b611f1383611cae565b9150611d6b60208401611cae565b5f8060408385031215611f32575f80fd5b611f3b83611cae565b9150602083013567ffffffffffffffff811115611f56575f80fd5b8301601f81018513611f66575f80fd5b611f7585823560208401611e0f565b9150509250929050565b600181811c90821680611f9357607f821691505b602082108103611fb157634e487b7160e01b5f52602260045260245ffd5b50919050565b6020808252602d908201527f4552433732313a2063616c6c6572206973206e6f7420746f6b656e206f776e6560408201526c1c881bdc88185c1c1c9bdd9959609a1b606082015260800190565b634e487b7160e01b5f52601160045260245ffd5b808202811582820484141761061457610614612004565b5f8261204957634e487b7160e01b5f52601260045260245ffd5b500490565b5f835161205f818460208801611c38565b835190830190612073818360208801611c38565b01949350505050565b5f6001820161208d5761208d612004565b5060010190565b60208082526025908201527f4552433732313a207472616e736665722066726f6d20696e636f72726563742060408201526437bbb732b960d91b606082015260800190565b60208082526032908201527f4552433732313a207472616e7366657220746f206e6f6e20455243373231526560408201527131b2b4bb32b91034b6b83632b6b2b73a32b960711b606082015260800190565b601f8211156107e257805f5260205f20601f840160051c810160208510156121505750805b601f840160051c820191505b8181101561216f575f815560010161215c565b5050505050565b815167ffffffffffffffff81111561219057612190611dfb565b6121a48161219e8454611f7f565b8461212b565b602080601f8311600181146121d7575f84156121c05750858301515b5f19600386901b1c1916600185901b17855561222e565b5f85815260208120601f198616915b82811015612205578886015182559484019460019091019084016121e6565b508582101561222257878501515f19600388901b60f8161c191681555b505060018460011b0185555b505050505050565b7f416363657373436f6e74726f6c3a206163636f756e742000000000000000000081525f835161226d816017850160208801611c38565b7001034b99036b4b9b9b4b733903937b6329607d1b601791840191820152835161229e816028840160208801611c38565b01602801949350505050565b6001600160a01b03858116825284166020820152604081018390526080606082018190525f906122dc90830184611c5a565b9695505050505050565b5f602082840312156122f6575f80fd5b81516113fc81611c08565b8082018082111561061457610614612004565b634e487b7160e01b5f52603260045260245ffd5b5f8161233657612336612004565b505f19019056fea2646970667358221220e46971402968e60c55d72a0ab4ebda1b36e24f754d049626c6e42407ef5361d764736f6c63430008180033",
  "linkReferences": {},
  "deployedLinkReferences": {},
  "immutableReferences": {},
  "inputSourceName": "project/src/NFT721.sol",
  "buildInfoId": "solc-0_8_24-a9c253e7292f9857ab4ecda4a3cdad80ad94a58c"
}